{
  "contractName": "UniswapLiquidity",
  "abi": [
    {
      "anonymous": false,
      "inputs": [
        {
          "indexed": false,
          "internalType": "string",
          "name": "message",
          "type": "string"
        },
        {
          "indexed": false,
          "internalType": "uint256",
          "name": "value",
          "type": "uint256"
        }
      ],
      "name": "Log",
      "type": "event"
    },
    {
      "inputs": [
        {
          "internalType": "address",
          "name": "_tokenA",
          "type": "address"
        },
        {
          "internalType": "address",
          "name": "_tokenB",
          "type": "address"
        },
        {
          "internalType": "uint256",
          "name": "_amountA",
          "type": "uint256"
        },
        {
          "internalType": "uint256",
          "name": "_amountB",
          "type": "uint256"
        }
      ],
      "name": "addLiquidity",
      "outputs": [],
      "stateMutability": "nonpayable",
      "type": "function"
    },
    {
      "inputs": [
        {
          "internalType": "address",
          "name": "_tokenA",
          "type": "address"
        },
        {
          "internalType": "address",
          "name": "_tokenB",
          "type": "address"
        }
      ],
      "name": "removeLiquidity",
      "outputs": [],
      "stateMutability": "nonpayable",
      "type": "function"
    },
    {
      "inputs": [
        {
          "internalType": "address",
          "name": "_receiver",
          "type": "address"
        },
        {
          "internalType": "address",
          "name": "_tokenA",
          "type": "address"
        },
        {
          "internalType": "address",
          "name": "_tokenB",
          "type": "address"
        }
      ],
      "name": "transferLiquidityTokensTo",
      "outputs": [],
      "stateMutability": "nonpayable",
      "type": "function"
    }
  ],
  "bytecode": "0x608060405234801561001057600080fd5b506124e7806100206000396000f3fe608060405234801561001057600080fd5b50600436106100415760003560e01c806374f9d952146100465780639cf38f7c146100ca578063cf6c62ea1461012e575b600080fd5b6100c86004803603606081101561005c57600080fd5b81019080803573ffffffffffffffffffffffffffffffffffffffff169060200190929190803573ffffffffffffffffffffffffffffffffffffffff169060200190929190803573ffffffffffffffffffffffffffffffffffffffff1690602001909291905050506101a6565b005b61012c600480360360408110156100e057600080fd5b81019080803573ffffffffffffffffffffffffffffffffffffffff169060200190929190803573ffffffffffffffffffffffffffffffffffffffff1690602001909291905050506107c2565b005b6101a46004803603608081101561014457600080fd5b81019080803573ffffffffffffffffffffffffffffffffffffffff169060200190929190803573ffffffffffffffffffffffffffffffffffffffff169060200190929190803590602001909291908035906020019092919050505061132c565b005b60008060003373ffffffffffffffffffffffffffffffffffffffff1673ffffffffffffffffffffffffffffffffffffffff168152602001908152602001600020541161023d576040517f08c379a000000000000000000000000000000000000000000000000000000000815260040180806020018281038252603a815260200180612384603a913960400191505060405180910390fd5b60008060003373ffffffffffffffffffffffffffffffffffffffff1673ffffffffffffffffffffffffffffffffffffffff168152602001908152602001600020549050600073c608f0718bea3563605aa652589767cb35fcd05d73ffffffffffffffffffffffffffffffffffffffff1663e6a4390585856040518363ffffffff1660e01b8152600401808373ffffffffffffffffffffffffffffffffffffffff1673ffffffffffffffffffffffffffffffffffffffff1681526020018273ffffffffffffffffffffffffffffffffffffffff1673ffffffffffffffffffffffffffffffffffffffff1681526020019250505060206040518083038186803b15801561034757600080fd5b505afa15801561035b573d6000803e3d6000fd5b505050506040513d602081101561037157600080fd5b8101908080519060200190929190505050905060008173ffffffffffffffffffffffffffffffffffffffff166370a08231306040518263ffffffff1660e01b8152600401808273ffffffffffffffffffffffffffffffffffffffff1673ffffffffffffffffffffffffffffffffffffffff16815260200191505060206040518083038186803b15801561040357600080fd5b505afa158015610417573d6000803e3d6000fd5b505050506040513d602081101561042d57600080fd5b8101908080519060200190929190505050905060008060003373ffffffffffffffffffffffffffffffffffffffff1673ffffffffffffffffffffffffffffffffffffffff168152602001908152602001600020819055508173ffffffffffffffffffffffffffffffffffffffff1663a9059cbb87856040518363ffffffff1660e01b8152600401808373ffffffffffffffffffffffffffffffffffffffff1673ffffffffffffffffffffffffffffffffffffffff16815260200182815260200192505050602060405180830381600087803b15801561050b57600080fd5b505af115801561051f573d6000803e3d6000fd5b505050506040513d602081101561053557600080fd5b81019080805190602001909291905050505060008273ffffffffffffffffffffffffffffffffffffffff166370a08231306040518263ffffffff1660e01b8152600401808273ffffffffffffffffffffffffffffffffffffffff1673ffffffffffffffffffffffffffffffffffffffff16815260200191505060206040518083038186803b1580156105c657600080fd5b505afa1580156105da573d6000803e3d6000fd5b505050506040513d60208110156105f057600080fd5b810190808051906020019092919050505090507fdd970dd9b5bfe707922155b058a407655cb18288b807e2216442bca8ad83d6b582604051808060200183815260200182810382526025815260200180612465602591396040019250505060405180910390a17fdd970dd9b5bfe707922155b058a407655cb18288b807e2216442bca8ad83d6b58160405180806020018381526020018281038252602681526020018061235e602691396040019250505060405180910390a160008373ffffffffffffffffffffffffffffffffffffffff166370a08231896040518263ffffffff1660e01b8152600401808273ffffffffffffffffffffffffffffffffffffffff1673ffffffffffffffffffffffffffffffffffffffff16815260200191505060206040518083038186803b15801561072857600080fd5b505afa15801561073c573d6000803e3d6000fd5b505050506040513d602081101561075257600080fd5b810190808051906020019092919050505090507fdd970dd9b5bfe707922155b058a407655cb18288b807e2216442bca8ad83d6b58160405180806020018381526020018281038252602681526020018061235e602691396040019250505060405180910390a15050505050505050565b60008060003373ffffffffffffffffffffffffffffffffffffffff1673ffffffffffffffffffffffffffffffffffffffff1681526020019081526020016000205490506000811161085e576040517f08c379a00000000000000000000000000000000000000000000000000000000081526004018080602001828103825260338152602001806123076033913960400191505060405180910390fd5b600073c608f0718bea3563605aa652589767cb35fcd05d73ffffffffffffffffffffffffffffffffffffffff1663e6a4390585856040518363ffffffff1660e01b8152600401808373ffffffffffffffffffffffffffffffffffffffff1673ffffffffffffffffffffffffffffffffffffffff1681526020018273ffffffffffffffffffffffffffffffffffffffff1673ffffffffffffffffffffffffffffffffffffffff1681526020019250505060206040518083038186803b15801561092557600080fd5b505afa158015610939573d6000803e3d6000fd5b505050506040513d602081101561094f57600080fd5b8101908080519060200190929190505050905060008173ffffffffffffffffffffffffffffffffffffffff166370a08231306040518263ffffffff1660e01b8152600401808273ffffffffffffffffffffffffffffffffffffffff1673ffffffffffffffffffffffffffffffffffffffff16815260200191505060206040518083038186803b1580156109e157600080fd5b505afa1580156109f5573d6000803e3d6000fd5b505050506040513d6020811015610a0b57600080fd5b810190808051906020019092919050505090508173ffffffffffffffffffffffffffffffffffffffff1663095ea7b37319326b7f6d45e40fdb04c2cd7c47147c6fa18d92856040518363ffffffff1660e01b8152600401808373ffffffffffffffffffffffffffffffffffffffff1673ffffffffffffffffffffffffffffffffffffffff16815260200182815260200192505050602060405180830381600087803b158015610ab957600080fd5b505af1158015610acd573d6000803e3d6000fd5b505050506040513d6020811015610ae357600080fd5b81019080805190602001909291905050505060008060003373ffffffffffffffffffffffffffffffffffffffff1673ffffffffffffffffffffffffffffffffffffffff168152602001908152602001600020819055506000807319326b7f6d45e40fdb04c2cd7c47147c6fa18d9273ffffffffffffffffffffffffffffffffffffffff1663baa2abde88888860018033426040518863ffffffff1660e01b8152600401808873ffffffffffffffffffffffffffffffffffffffff1673ffffffffffffffffffffffffffffffffffffffff1681526020018773ffffffffffffffffffffffffffffffffffffffff1673ffffffffffffffffffffffffffffffffffffffff1681526020018681526020018581526020018481526020018373ffffffffffffffffffffffffffffffffffffffff1673ffffffffffffffffffffffffffffffffffffffff1681526020018281526020019750505050505050506040805180830381600087803b158015610c5757600080fd5b505af1158015610c6b573d6000803e3d6000fd5b505050506040513d6040811015610c8157600080fd5b8101908080519060200190929190805190602001909291905050509150915060008473ffffffffffffffffffffffffffffffffffffffff166370a08231306040518263ffffffff1660e01b8152600401808273ffffffffffffffffffffffffffffffffffffffff1673ffffffffffffffffffffffffffffffffffffffff16815260200191505060206040518083038186803b158015610d1f57600080fd5b505afa158015610d33573d6000803e3d6000fd5b505050506040513d6020811015610d4957600080fd5b810190808051906020019092919050505090507fdd970dd9b5bfe707922155b058a407655cb18288b807e2216442bca8ad83d6b58360405180806020018381526020018281038252601c8152602001807f546f6b656e20412052657475726e6564206120746f74616c206f663a000000008152506020019250505060405180910390a17fdd970dd9b5bfe707922155b058a407655cb18288b807e2216442bca8ad83d6b58260405180806020018381526020018281038252601c8152602001807f546f6b656e20422052657475726e6564206120746f74616c206f663a000000008152506020019250505060405180910390a17fdd970dd9b5bfe707922155b058a407655cb18288b807e2216442bca8ad83d6b584604051808060200183815260200182810382526025815260200180612465602591396040019250505060405180910390a17fdd970dd9b5bfe707922155b058a407655cb18288b807e2216442bca8ad83d6b58160405180806020018381526020018281038252602681526020018061235e602691396040019250505060405180910390a160008873ffffffffffffffffffffffffffffffffffffffff166370a08231306040518263ffffffff1660e01b8152600401808273ffffffffffffffffffffffffffffffffffffffff1673ffffffffffffffffffffffffffffffffffffffff16815260200191505060206040518083038186803b158015610f6157600080fd5b505afa158015610f75573d6000803e3d6000fd5b505050506040513d6020811015610f8b57600080fd5b810190808051906020019092919050505090507fdd970dd9b5bfe707922155b058a407655cb18288b807e2216442bca8ad83d6b58160405180806020018381526020018281038252602481526020018061233a602491396040019250505060405180910390a160008973ffffffffffffffffffffffffffffffffffffffff166370a08231886040518263ffffffff1660e01b8152600401808273ffffffffffffffffffffffffffffffffffffffff1673ffffffffffffffffffffffffffffffffffffffff16815260200191505060206040518083038186803b15801561107057600080fd5b505afa158015611084573d6000803e3d6000fd5b505050506040513d602081101561109a57600080fd5b810190808051906020019092919050505090507fdd970dd9b5bfe707922155b058a407655cb18288b807e2216442bca8ad83d6b581604051808060200183815260200182810382526028815260200180612419602891396040019250505060405180910390a160008973ffffffffffffffffffffffffffffffffffffffff166370a08231306040518263ffffffff1660e01b8152600401808273ffffffffffffffffffffffffffffffffffffffff1673ffffffffffffffffffffffffffffffffffffffff16815260200191505060206040518083038186803b15801561117f57600080fd5b505afa158015611193573d6000803e3d6000fd5b505050506040513d60208110156111a957600080fd5b810190808051906020019092919050505090507fdd970dd9b5bfe707922155b058a407655cb18288b807e2216442bca8ad83d6b5816040518080602001838152602001828103825260248152602001806123be602491396040019250505060405180910390a160008a73ffffffffffffffffffffffffffffffffffffffff166370a082318a6040518263ffffffff1660e01b8152600401808273ffffffffffffffffffffffffffffffffffffffff1673ffffffffffffffffffffffffffffffffffffffff16815260200191505060206040518083038186803b15801561128e57600080fd5b505afa1580156112a2573d6000803e3d6000fd5b505050506040513d60208110156112b857600080fd5b810190808051906020019092919050505090507fdd970dd9b5bfe707922155b058a407655cb18288b807e2216442bca8ad83d6b58160405180806020018381526020018281038252602881526020018061248a602891396040019250505060405180910390a1505050505050505050505050565b8373ffffffffffffffffffffffffffffffffffffffff166323b872dd3330856040518463ffffffff1660e01b8152600401808473ffffffffffffffffffffffffffffffffffffffff1673ffffffffffffffffffffffffffffffffffffffff1681526020018373ffffffffffffffffffffffffffffffffffffffff1673ffffffffffffffffffffffffffffffffffffffff1681526020018281526020019350505050602060405180830381600087803b1580156113e757600080fd5b505af11580156113fb573d6000803e3d6000fd5b505050506040513d602081101561141157600080fd5b8101908080519060200190929190505050508273ffffffffffffffffffffffffffffffffffffffff166323b872dd3330846040518463ffffffff1660e01b8152600401808473ffffffffffffffffffffffffffffffffffffffff1673ffffffffffffffffffffffffffffffffffffffff1681526020018373ffffffffffffffffffffffffffffffffffffffff1673ffffffffffffffffffffffffffffffffffffffff1681526020018281526020019350505050602060405180830381600087803b1580156114de57600080fd5b505af11580156114f2573d6000803e3d6000fd5b505050506040513d602081101561150857600080fd5b8101908080519060200190929190505050508373ffffffffffffffffffffffffffffffffffffffff1663095ea7b37319326b7f6d45e40fdb04c2cd7c47147c6fa18d92846040518363ffffffff1660e01b8152600401808373ffffffffffffffffffffffffffffffffffffffff1673ffffffffffffffffffffffffffffffffffffffff16815260200182815260200192505050602060405180830381600087803b1580156115b557600080fd5b505af11580156115c9573d6000803e3d6000fd5b505050506040513d60208110156115df57600080fd5b8101908080519060200190929190505050508273ffffffffffffffffffffffffffffffffffffffff1663095ea7b37319326b7f6d45e40fdb04c2cd7c47147c6fa18d92836040518363ffffffff1660e01b8152600401808373ffffffffffffffffffffffffffffffffffffffff1673ffffffffffffffffffffffffffffffffffffffff16815260200182815260200192505050602060405180830381600087803b15801561168c57600080fd5b505af11580156116a0573d6000803e3d6000fd5b505050506040513d60208110156116b657600080fd5b81019080805190602001909291905050505060008060007319326b7f6d45e40fdb04c2cd7c47147c6fa18d9273ffffffffffffffffffffffffffffffffffffffff1663e8e337008888888860018030426040518963ffffffff1660e01b8152600401808973ffffffffffffffffffffffffffffffffffffffff1673ffffffffffffffffffffffffffffffffffffffff1681526020018873ffffffffffffffffffffffffffffffffffffffff1673ffffffffffffffffffffffffffffffffffffffff1681526020018781526020018681526020018581526020018481526020018373ffffffffffffffffffffffffffffffffffffffff1673ffffffffffffffffffffffffffffffffffffffff16815260200182815260200198505050505050505050606060405180830381600087803b1580156117f157600080fd5b505af1158015611805573d6000803e3d6000fd5b505050506040513d606081101561181b57600080fd5b8101908080519060200190929190805190602001909291908051906020019092919050505092509250925060008386039050600083860390508873ffffffffffffffffffffffffffffffffffffffff166323b872dd3033856040518463ffffffff1660e01b8152600401808473ffffffffffffffffffffffffffffffffffffffff1673ffffffffffffffffffffffffffffffffffffffff1681526020018373ffffffffffffffffffffffffffffffffffffffff1673ffffffffffffffffffffffffffffffffffffffff1681526020018281526020019350505050602060405180830381600087803b15801561190f57600080fd5b505af1158015611923573d6000803e3d6000fd5b505050506040513d602081101561193957600080fd5b8101908080519060200190929190505050508773ffffffffffffffffffffffffffffffffffffffff166323b872dd3033846040518463ffffffff1660e01b8152600401808473ffffffffffffffffffffffffffffffffffffffff1673ffffffffffffffffffffffffffffffffffffffff1681526020018373ffffffffffffffffffffffffffffffffffffffff1673ffffffffffffffffffffffffffffffffffffffff1681526020018281526020019350505050602060405180830381600087803b158015611a0657600080fd5b505af1158015611a1a573d6000803e3d6000fd5b505050506040513d6020811015611a3057600080fd5b810190808051906020019092919050505050826000803373ffffffffffffffffffffffffffffffffffffffff1673ffffffffffffffffffffffffffffffffffffffff16815260200190815260200160002054016000803373ffffffffffffffffffffffffffffffffffffffff1673ffffffffffffffffffffffffffffffffffffffff16815260200190815260200160002081905550600073c608f0718bea3563605aa652589767cb35fcd05d73ffffffffffffffffffffffffffffffffffffffff1663e6a439058b8b6040518363ffffffff1660e01b8152600401808373ffffffffffffffffffffffffffffffffffffffff1673ffffffffffffffffffffffffffffffffffffffff1681526020018273ffffffffffffffffffffffffffffffffffffffff1673ffffffffffffffffffffffffffffffffffffffff1681526020019250505060206040518083038186803b158015611b8c57600080fd5b505afa158015611ba0573d6000803e3d6000fd5b505050506040513d6020811015611bb657600080fd5b8101908080519060200190929190505050905060008173ffffffffffffffffffffffffffffffffffffffff166370a08231306040518263ffffffff1660e01b8152600401808273ffffffffffffffffffffffffffffffffffffffff1673ffffffffffffffffffffffffffffffffffffffff16815260200191505060206040518083038186803b158015611c4857600080fd5b505afa158015611c5c573d6000803e3d6000fd5b505050506040513d6020811015611c7257600080fd5b810190808051906020019092919050505090507fdd970dd9b5bfe707922155b058a407655cb18288b807e2216442bca8ad83d6b58760405180806020018381526020018281038252601b8152602001807f616d6f756e744120616464656420746f2074686520706f6f6c3a2000000000008152506020019250505060405180910390a17fdd970dd9b5bfe707922155b058a407655cb18288b807e2216442bca8ad83d6b58660405180806020018381526020018281038252601b8152602001807f616d6f756e744220616464656420746f2074686520706f6f6c3a2000000000008152506020019250505060405180910390a17fdd970dd9b5bfe707922155b058a407655cb18288b807e2216442bca8ad83d6b58560405180806020018381526020018281038252601d8152602001807f4c697175696469747920616464656420746f2074686520706f6f6c3a200000008152506020019250505060405180910390a17fdd970dd9b5bfe707922155b058a407655cb18288b807e2216442bca8ad83d6b56000803373ffffffffffffffffffffffffffffffffffffffff1673ffffffffffffffffffffffffffffffffffffffff16815260200190815260200160002054604051808060200183815260200182810382526024815260200180612441602491396040019250505060405180910390a17fdd970dd9b5bfe707922155b058a407655cb18288b807e2216442bca8ad83d6b5816040518080602001838152602001828103825260378152602001806123e2603791396040019250505060405180910390a160008b73ffffffffffffffffffffffffffffffffffffffff166370a08231306040518263ffffffff1660e01b8152600401808273ffffffffffffffffffffffffffffffffffffffff1673ffffffffffffffffffffffffffffffffffffffff16815260200191505060206040518083038186803b158015611f3857600080fd5b505afa158015611f4c573d6000803e3d6000fd5b505050506040513d6020811015611f6257600080fd5b810190808051906020019092919050505090507fdd970dd9b5bfe707922155b058a407655cb18288b807e2216442bca8ad83d6b58160405180806020018381526020018281038252602481526020018061233a602491396040019250505060405180910390a160008c73ffffffffffffffffffffffffffffffffffffffff166370a08231856040518263ffffffff1660e01b8152600401808273ffffffffffffffffffffffffffffffffffffffff1673ffffffffffffffffffffffffffffffffffffffff16815260200191505060206040518083038186803b15801561204757600080fd5b505afa15801561205b573d6000803e3d6000fd5b505050506040513d602081101561207157600080fd5b810190808051906020019092919050505090507fdd970dd9b5bfe707922155b058a407655cb18288b807e2216442bca8ad83d6b581604051808060200183815260200182810382526028815260200180612419602891396040019250505060405180910390a160008c73ffffffffffffffffffffffffffffffffffffffff166370a08231306040518263ffffffff1660e01b8152600401808273ffffffffffffffffffffffffffffffffffffffff1673ffffffffffffffffffffffffffffffffffffffff16815260200191505060206040518083038186803b15801561215657600080fd5b505afa15801561216a573d6000803e3d6000fd5b505050506040513d602081101561218057600080fd5b810190808051906020019092919050505090507fdd970dd9b5bfe707922155b058a407655cb18288b807e2216442bca8ad83d6b5816040518080602001838152602001828103825260248152602001806123be602491396040019250505060405180910390a160008d73ffffffffffffffffffffffffffffffffffffffff166370a08231876040518263ffffffff1660e01b8152600401808273ffffffffffffffffffffffffffffffffffffffff1673ffffffffffffffffffffffffffffffffffffffff16815260200191505060206040518083038186803b15801561226557600080fd5b505afa158015612279573d6000803e3d6000fd5b505050506040513d602081101561228f57600080fd5b810190808051906020019092919050505090507fdd970dd9b5bfe707922155b058a407655cb18288b807e2216442bca8ad83d6b58160405180806020018381526020018281038252602881526020018061248a602891396040019250505060405180910390a150505050505050505050505050505056fe4572726f722c207468697320616464726573732068617665206e6f742070726f766964656420616e79206c6971756964697479546f74616c20746f6b656e412068656c6420696e207468697320636f6e74726163743a2052656d61696e696e67204c697175696469747920696e207468697320636f6e74726163743a205468652063616c6c657220646f65736e277420686f6c6473206c697175696469747920746f6b656e7320696e207468697320636f6e7472616374546f74616c20746f6b656e422068656c6420696e207468697320636f6e74726163743a20546f74616c206c69717569646974792070726f766964657220746f6b656e732068656c6420696e207468697320636f6e74726163743a20546f74616c20746f6b656e412068656c6420696e2074686520706f6f6c20636f6e74726163743a20546f74616c206c69717569646974792068656c64206279207468652070726f76696465724f726967696e616c204c697175696469747920696e207468697320636f6e74726163743a20546f74616c20746f6b656e422068656c6420696e2074686520706f6f6c20636f6e74726163743a20a2646970667358221220a12936651e403caa1cf98fc5cb4da059c6613abc9e958da52dbbac61d76a17a964736f6c63430006060033",
  "immutableReferences": {},
  "source": "pragma solidity ^0.6.6;\r\n\r\nimport \"./interfaces/IERC20.sol\";\r\nimport \"@uniswap/v2-periphery/contracts/interfaces/IUniswapV2Router02.sol\";\r\nimport \"@uniswap/v2-core/contracts/interfaces/IUniswapV2Factory.sol\";\r\n\r\n\r\ncontract UniswapLiquidity {\r\n  address private constant UNISWAP_FACTORY = 0xC608F0718beA3563605aa652589767Cb35fcD05D;  //Ganache\r\n  address private constant UNISWAP_ROUTER = 0x19326b7F6d45e40fDb04C2Cd7c47147c6FA18D92;   //Ganache\r\n  address private constant WETH = 0xf25812889146372f9614c499228620EB7017A569;             //Ganache\r\n\r\n  mapping(address => uint) liquidityOwnership;\r\n\r\n  event Log(string message, uint value);\r\n\r\n  function addLiquidity(address _tokenA, address _tokenB, uint _amountA, uint _amountB) external {\r\n    IERC20(_tokenA).transferFrom(msg.sender, address(this), _amountA);\r\n    IERC20(_tokenB).transferFrom(msg.sender, address(this), _amountB);\r\n\r\n    IERC20(_tokenA).approve(UNISWAP_ROUTER, _amountA);\r\n    IERC20(_tokenB).approve(UNISWAP_ROUTER, _amountB);\r\n\r\n    (uint amountA, uint amountB, uint liquidity) = \r\n    IUniswapV2Router02(UNISWAP_ROUTER).addLiquidity(\r\n      _tokenA,\r\n      _tokenB,\r\n      _amountA,\r\n      _amountB,\r\n      1,\r\n      1,\r\n      address(this),\r\n      block.timestamp\r\n    );\r\n\r\n    // Return the remaining tokens to the provider - All the tokens that were not added to the pool\r\n    uint remainingTokenA = _amountA - amountA;\r\n    uint remainingTokenB = _amountB - amountB;\r\n\r\n    IERC20(_tokenA).transferFrom(address(this), msg.sender, remainingTokenA);\r\n    IERC20(_tokenB).transferFrom(address(this), msg.sender, remainingTokenB);\r\n    \r\n    // Update the total provider's liquidity - total liquidity that a provider helds on this contract\r\n    liquidityOwnership[msg.sender] = liquidityOwnership[msg.sender] + liquidity;\r\n\r\n    // Retrieve the total liquidity provider tokens that this contract helds\r\n    address pair = IUniswapV2Factory(UNISWAP_FACTORY).getPair(_tokenA, _tokenB);\r\n    uint contractOriginalLiquidity = IERC20(pair).balanceOf(address(this));\r\n\r\n    emit Log(\"amountA added to the pool: \",amountA);\r\n    emit Log(\"amountB added to the pool: \",amountB);\r\n    emit Log(\"Liquidity added to the pool: \",liquidity);\r\n    emit Log(\"Total liquidity held by the provider\", liquidityOwnership[msg.sender]);\r\n    emit Log(\"Total liquidity provider tokens held in this contract: \", contractOriginalLiquidity);\r\n\r\n    uint totalTokenA = IERC20(_tokenA).balanceOf(address(this));\r\n    emit Log(\"Total tokenA held in this contract: \", totalTokenA);\r\n    uint totalTokenAInPool = IERC20(_tokenA).balanceOf(pair);\r\n    emit Log(\"Total tokenA held in the pool contract: \", totalTokenAInPool);\r\n\r\n    uint totalTokenB = IERC20(_tokenB).balanceOf(address(this));\r\n    emit Log(\"Total tokenB held in this contract: \", totalTokenB);\r\n    uint totalTokenBInPool = IERC20(_tokenB).balanceOf(pair);\r\n    emit Log(\"Total tokenB held in the pool contract: \", totalTokenBInPool);\r\n\r\n  }\r\n\r\n  function removeLiquidity(address _tokenA, address _tokenB) external {\r\n    uint liquidity = liquidityOwnership[msg.sender]; // Provider's total liquidity\r\n    require(liquidity > 0, \"Error, this address have not provided any liquidity\");\r\n\r\n    address pair = IUniswapV2Factory(UNISWAP_FACTORY).getPair(_tokenA, _tokenB);\r\n    uint contractOriginalLiquidity = IERC20(pair).balanceOf(address(this));\r\n\r\n    IERC20(pair).approve(UNISWAP_ROUTER, liquidity);\r\n    \r\n    // Set provider's liquidity to 0 - prevent reentrancy\r\n    liquidityOwnership[msg.sender] = 0;\r\n    // Remove provider's liquidity from this contract and send tokens A & B to te provider's address\r\n    (uint amountA, uint amountB) = IUniswapV2Router02(UNISWAP_ROUTER).removeLiquidity(_tokenA,_tokenB,liquidity,1,1,msg.sender,block.timestamp);\r\n\r\n    uint contractRemainingLiquidity = IERC20(pair).balanceOf(address(this));\r\n    emit Log(\"Token A Returned a total of:\" , amountA);\r\n    emit Log(\"Token B Returned a total of:\" , amountB);\r\n    emit Log(\"Original Liquidity in this contract: \", contractOriginalLiquidity);\r\n    emit Log(\"Remaining Liquidity in this contract: \", contractRemainingLiquidity);\r\n\r\n    uint totalTokenA = IERC20(_tokenA).balanceOf(address(this));\r\n    emit Log(\"Total tokenA held in this contract: \", totalTokenA);\r\n    uint totalTokenAInPool = IERC20(_tokenA).balanceOf(pair);\r\n    emit Log(\"Total tokenA held in the pool contract: \", totalTokenAInPool);\r\n\r\n    uint totalTokenB = IERC20(_tokenB).balanceOf(address(this));\r\n    emit Log(\"Total tokenB held in this contract: \", totalTokenB);\r\n    uint totalTokenBInPool = IERC20(_tokenB).balanceOf(pair);\r\n    emit Log(\"Total tokenB held in the pool contract: \", totalTokenBInPool);\r\n\r\n  }\r\n\r\n  /**\r\n    @dev transferLiquidityTokensTo() function transfers all the liquidity tokens that a providers holds on this contract to a given address specified in the parameters\r\n  */\r\n  function transferLiquidityTokensTo(address _receiver, address _tokenA, address _tokenB) external {\r\n    require(liquidityOwnership[msg.sender] > 0, \"The caller doesn't holds liquidity tokens in this contract\");\r\n  \r\n    uint liquidity = liquidityOwnership[msg.sender]; // Provider's total liquidity\r\n    address pair = IUniswapV2Factory(UNISWAP_FACTORY).getPair(_tokenA, _tokenB);\r\n\r\n    uint contractOriginalLiquidity = IERC20(pair).balanceOf(address(this));\r\n\r\n    // Prevent re-entrancy attacks\r\n    liquidityOwnership[msg.sender] = 0;\r\n\r\n    // Send the liquidity tokens that the providers holds on this contract\r\n    IERC20(pair).transfer(_receiver, liquidity);\r\n\r\n    uint contractRemainingLiquidity = IERC20(pair).balanceOf(address(this));\r\n\r\n    emit Log(\"Original Liquidity in this contract: \", contractOriginalLiquidity);\r\n    emit Log(\"Remaining Liquidity in this contract: \", contractRemainingLiquidity);\r\n\r\n    uint newAddressLPs = IERC20(pair).balanceOf(_receiver);\r\n    emit Log(\"Remaining Liquidity in this contract: \", newAddressLPs);\r\n\r\n  }\r\n  \r\n}",
  "sourcePath": "/mnt/c/pr0/blockchain-projects/Uniswap/Liquidity_Value_Calculator/IntegrationContractsWithUniswap/contracts/UniswapLiquidity.sol",
  "compiler": {
    "name": "solc",
    "version": "0.6.6+commit.6c089d02.Emscripten.clang"
  },
  "schemaVersion": "3.4.4",
  "updatedAt": "2022-09-17T01:29:43.918Z",
  "networkType": "ethereum",
  "devdoc": {
    "methods": {
      "transferLiquidityTokensTo(address,address,address)": {
        "details": "transferLiquidityTokensTo() function transfers all the liquidity tokens that a providers holds on this contract to a given address specified in the parameters"
      }
    }
  },
  "userdoc": {
    "methods": {}
  }
}