{
  "contractName": "MockTimeUniswapV3PoolDeployer",
  "abi": [
    {
      "anonymous": false,
      "inputs": [
        {
          "indexed": false,
          "internalType": "address",
          "name": "pool",
          "type": "address"
        }
      ],
      "name": "PoolDeployed",
      "type": "event"
    },
    {
      "inputs": [],
      "name": "parameters",
      "outputs": [
        {
          "internalType": "address",
          "name": "factory",
          "type": "address"
        },
        {
          "internalType": "address",
          "name": "token0",
          "type": "address"
        },
        {
          "internalType": "address",
          "name": "token1",
          "type": "address"
        },
        {
          "internalType": "uint24",
          "name": "fee",
          "type": "uint24"
        },
        {
          "internalType": "int24",
          "name": "tickSpacing",
          "type": "int24"
        }
      ],
      "stateMutability": "view",
      "type": "function"
    },
    {
      "inputs": [
        {
          "internalType": "address",
          "name": "factory",
          "type": "address"
        },
        {
          "internalType": "address",
          "name": "token0",
          "type": "address"
        },
        {
          "internalType": "address",
          "name": "token1",
          "type": "address"
        },
        {
          "internalType": "uint24",
          "name": "fee",
          "type": "uint24"
        },
        {
          "internalType": "int24",
          "name": "tickSpacing",
          "type": "int24"
        }
      ],
      "name": "deploy",
      "outputs": [
        {
          "internalType": "address",
          "name": "pool",
          "type": "address"
        }
      ],
      "stateMutability": "nonpayable",
      "type": "function"
    }
  ],
  "bytecode": "0x608060405234801561001057600080fd5b50618fc9806100206000396000f3fe608060405234801561001057600080fd5b50600436106100365760003560e01c8063890357301461003b578063fad5359f146100bf575b600080fd5b610043610189565b604051808673ffffffffffffffffffffffffffffffffffffffff1681526020018573ffffffffffffffffffffffffffffffffffffffff1681526020018473ffffffffffffffffffffffffffffffffffffffff1681526020018362ffffff1681526020018260020b81526020019550505050505060405180910390f35b61015d600480360360a08110156100d557600080fd5b81019080803573ffffffffffffffffffffffffffffffffffffffff169060200190929190803573ffffffffffffffffffffffffffffffffffffffff169060200190929190803573ffffffffffffffffffffffffffffffffffffffff169060200190929190803562ffffff169060200190929190803560020b9060200190929190505050610229565b604051808273ffffffffffffffffffffffffffffffffffffffff16815260200191505060405180910390f35b60008060000160009054906101000a900473ffffffffffffffffffffffffffffffffffffffff16908060010160009054906101000a900473ffffffffffffffffffffffffffffffffffffffff16908060020160009054906101000a900473ffffffffffffffffffffffffffffffffffffffff16908060020160149054906101000a900462ffffff16908060020160179054906101000a900460020b905085565b60006040518060a001604052808773ffffffffffffffffffffffffffffffffffffffff1681526020018673ffffffffffffffffffffffffffffffffffffffff1681526020018573ffffffffffffffffffffffffffffffffffffffff1681526020018462ffffff1681526020018360020b8152506000808201518160000160006101000a81548173ffffffffffffffffffffffffffffffffffffffff021916908373ffffffffffffffffffffffffffffffffffffffff16021790555060208201518160010160006101000a81548173ffffffffffffffffffffffffffffffffffffffff021916908373ffffffffffffffffffffffffffffffffffffffff16021790555060408201518160020160006101000a81548173ffffffffffffffffffffffffffffffffffffffff021916908373ffffffffffffffffffffffffffffffffffffffff16021790555060608201518160020160146101000a81548162ffffff021916908362ffffff16021790555060808201518160020160176101000a81548162ffffff021916908360020b62ffffff16021790555090505084848484604051602001808573ffffffffffffffffffffffffffffffffffffffff1660601b81526014018473ffffffffffffffffffffffffffffffffffffffff1660601b81526014018362ffffff1660e81b81526003018260020b60e81b81526003019450505050506040516020818303038152906040528051906020012060405161044d9061056c565b8190604051809103906000f590508015801561046d573d6000803e3d6000fd5b5090507ff0d1eeab175eee2e20b8dc452773bf2257b25724b323b42bc6e5b4616233ae1f81604051808273ffffffffffffffffffffffffffffffffffffffff16815260200191505060405180910390a16000806000820160006101000a81549073ffffffffffffffffffffffffffffffffffffffff02191690556001820160006101000a81549073ffffffffffffffffffffffffffffffffffffffff02191690556002820160006101000a81549073ffffffffffffffffffffffffffffffffffffffff02191690556002820160146101000a81549062ffffff02191690556002820160176101000a81549062ffffff0219169055505095945050505050565b618a1a8061057a8339019056fe610160604052635f7b26e062010007553480156200001c57600080fd5b503073ffffffffffffffffffffffffffffffffffffffff1660808173ffffffffffffffffffffffffffffffffffffffff1660601b8152505060003373ffffffffffffffffffffffffffffffffffffffff1663890357306040518163ffffffff1660e01b815260040160a06040518083038186803b1580156200009d57600080fd5b505afa158015620000b2573d6000803e3d6000fd5b505050506040513d60a0811015620000c957600080fd5b8101908080519060200190929190805190602001909291908051906020019092919080519060200190929190805190602001909291905050508095508162ffffff166101009062ffffff1660e81b8152508273ffffffffffffffffffffffffffffffffffffffff1660e09073ffffffffffffffffffffffffffffffffffffffff1660601b8152508373ffffffffffffffffffffffffffffffffffffffff1660c09073ffffffffffffffffffffffffffffffffffffffff1660601b8152508473ffffffffffffffffffffffffffffffffffffffff1660a09073ffffffffffffffffffffffffffffffffffffffff1660601b81525050505050508060020b6101208160020b60e81b81525050620001e9816200021f60201b620045771760201c565b6fffffffffffffffffffffffffffffffff16610140816fffffffffffffffffffffffffffffffff1660801b8152505050620002d7565b600080828360020b7ffffffffffffffffffffffffffffffffffffffffffffffffffffffffffff2761860020b816200025357fe5b050290506000838460020b7ffffffffffffffffffffffffffffffffffffffffffffffffffffffffffff2761860000360020b816200028d57fe5b05029050600060018560020b84840360020b81620002a757fe5b050190508062ffffff166fffffffffffffffffffffffffffffffff801681620002cc57fe5b049350505050919050565b60805160601c60a05160601c60c05160601c60e05160601c6101005160e81c6101205160e81c6101405160801c618676620003a4600039806132a9528061743a5280617483525080611347528061417e52806174c9528061750652508061154352806128ac52806128e352806141d0525080611c76528061296d528061310452806139b952806141a25280615e98525080610da15280611df65280612938528061304f52806138ac5280615cd452508061336e5280613614528061415a52508061462d52506186766000f3fe608060405234801561001057600080fd5b50600436106101da5760003560e01c806370cf754a11610104578063d0c93a7c116100a2578063f305839911610071578063f305839914610c4e578063f30dba9314610c6c578063f637731d14610d18578063f6eb760f14610d5c576101da565b8063d0c93a7c14610ba8578063d21220a714610bc9578063d380c67914610bfd578063ddca3f4314610c2b576101da565b8063883bdbfd116100de578063883bdbfd1461096a578063a34123a714610a80578063a38807f214610af5578063c45a015514610b74576101da565b806370cf754a146108415780638206a4d11461087157806385b66729146108af576101da565b806332148f671161017c578063490e6cbc1161014b578063490e6cbc146105e65780634f1eb3d814610693578063514ea4bf146107685780635339c296146107fc576101da565b806332148f671461043a5780633850c7bd1461046c5780633c8a7d8d146104de57806346141319146105c8576101da565b806316ada547116101b857806316ada5471461032b5780631a686502146103495780631ad8b03b14610379578063252c09d7146103c2576101da565b806307e32f0a146101df5780630dfe16811461020d578063128acb0814610241575b600080fd5b61020b600480360360208110156101f557600080fd5b8101908080359060200190929190505050610d8a565b005b610215610d9f565b604051808273ffffffffffffffffffffffffffffffffffffffff16815260200191505060405180910390f35b61030e600480360360a081101561025757600080fd5b81019080803573ffffffffffffffffffffffffffffffffffffffff16906020019092919080351515906020019092919080359060200190929190803573ffffffffffffffffffffffffffffffffffffffff169060200190929190803590602001906401000000008111156102ca57600080fd5b8201836020820111156102dc57600080fd5b803590602001918460018302840111640100000000831117156102fe57600080fd5b9091929391929390505050610dc3565b604051808381526020018281526020019250505060405180910390f35b61033361204c565b6040518082815260200191505060405180910390f35b610351612054565b60405180826fffffffffffffffffffffffffffffffff16815260200191505060405180910390f35b610381612076565b60405180836fffffffffffffffffffffffffffffffff168152602001826fffffffffffffffffffffffffffffffff1681526020019250505060405180910390f35b6103ee600480360360208110156103d857600080fd5b81019080803590602001909291905050506120c0565b604051808563ffffffff1681526020018460060b81526020018373ffffffffffffffffffffffffffffffffffffffff168152602001821515815260200194505050505060405180910390f35b61046a6004803603602081101561045057600080fd5b81019080803561ffff16906020019092919050505061213e565b005b6104746122b0565b604051808873ffffffffffffffffffffffffffffffffffffffff1681526020018760020b81526020018661ffff1681526020018561ffff1681526020018461ffff1681526020018360ff168152602001821515815260200197505050505050505060405180910390f35b6105ab600480360360a08110156104f457600080fd5b81019080803573ffffffffffffffffffffffffffffffffffffffff169060200190929190803560020b9060200190929190803560020b906020019092919080356fffffffffffffffffffffffffffffffff1690602001909291908035906020019064010000000081111561056757600080fd5b82018360208201111561057957600080fd5b8035906020019184600183028401116401000000008311171561059b57600080fd5b9091929391929390505050612351565b604051808381526020018281526020019250505060405180910390f35b6105d061274a565b6040518082815260200191505060405180910390f35b610691600480360360808110156105fc57600080fd5b81019080803573ffffffffffffffffffffffffffffffffffffffff16906020019092919080359060200190929190803590602001909291908035906020019064010000000081111561064d57600080fd5b82018360208201111561065f57600080fd5b8035906020019184600183028401116401000000008311171561068157600080fd5b9091929391929390505050612750565b005b610727600480360360a08110156106a957600080fd5b81019080803573ffffffffffffffffffffffffffffffffffffffff169060200190929190803560020b9060200190929190803560020b906020019092919080356fffffffffffffffffffffffffffffffff16906020019092919080356fffffffffffffffffffffffffffffffff169060200190929190505050612e29565b60405180836fffffffffffffffffffffffffffffffff168152602001826fffffffffffffffffffffffffffffffff1681526020019250505060405180910390f35b6107946004803603602081101561077e57600080fd5b8101908080359060200190929190505050613205565b60405180866fffffffffffffffffffffffffffffffff168152602001858152602001848152602001836fffffffffffffffffffffffffffffffff168152602001826fffffffffffffffffffffffffffffffff1681526020019550505050505060405180910390f35b61082b6004803603602081101561081257600080fd5b81019080803560010b906020019092919050505061328f565b6040518082815260200191505060405180910390f35b6108496132a7565b60405180826fffffffffffffffffffffffffffffffff16815260200191505060405180910390f35b6108ad6004803603604081101561088757600080fd5b81019080803560ff169060200190929190803560ff1690602001909291905050506132cb565b005b610929600480360360608110156108c557600080fd5b81019080803573ffffffffffffffffffffffffffffffffffffffff16906020019092919080356fffffffffffffffffffffffffffffffff16906020019092919080356fffffffffffffffffffffffffffffffff16906020019092919050505061356e565b60405180836fffffffffffffffffffffffffffffffff168152602001826fffffffffffffffffffffffffffffffff1681526020019250505060405180910390f35b6109e16004803603602081101561098057600080fd5b810190808035906020019064010000000081111561099d57600080fd5b8201836020820111156109af57600080fd5b803590602001918460208302840111640100000000831117156109d157600080fd5b9091929391929390505050613aa8565b604051808060200180602001838103835285818151815260200191508051906020019060200280838360005b83811015610a28578082015181840152602081019050610a0d565b50505050905001838103825284818151815260200191508051906020019060200280838360005b83811015610a6a578082015181840152602081019050610a4f565b5050505090500194505050505060405180910390f35b610ad860048036036060811015610a9657600080fd5b81019080803560020b9060200190929190803560020b906020019092919080356fffffffffffffffffffffffffffffffff169060200190929190505050613b77565b604051808381526020018281526020019250505060405180910390f35b610b3160048036036040811015610b0b57600080fd5b81019080803560020b9060200190929190803560020b9060200190929190505050613e0e565b604051808460060b81526020018373ffffffffffffffffffffffffffffffffffffffff1681526020018263ffffffff168152602001935050505060405180910390f35b610b7c614158565b604051808273ffffffffffffffffffffffffffffffffffffffff16815260200191505060405180910390f35b610bb061417c565b604051808260020b815260200191505060405180910390f35b610bd16141a0565b604051808273ffffffffffffffffffffffffffffffffffffffff16815260200191505060405180910390f35b610c2960048036036020811015610c1357600080fd5b81019080803590602001909291905050506141c4565b005b610c336141ce565b604051808262ffffff16815260200191505060405180910390f35b610c566141f2565b6040518082815260200191505060405180910390f35b610c9b60048036036020811015610c8257600080fd5b81019080803560020b90602001909291905050506141f8565b60405180896fffffffffffffffffffffffffffffffff16815260200188600f0b81526020018781526020018681526020018560060b81526020018473ffffffffffffffffffffffffffffffffffffffff1681526020018363ffffffff16815260200182151581526020019850505050505050505060405180910390f35b610d5a60048036036020811015610d2e57600080fd5b81019080803573ffffffffffffffffffffffffffffffffffffffff1690602001909291905050506142b3565b005b610d8860048036036020811015610d7257600080fd5b810190808035906020019092919050505061456d565b005b80620100076000828254019250508190555050565b7f000000000000000000000000000000000000000000000000000000000000000081565b600080610dce61462b565b6000861415610e45576040517f08c379a00000000000000000000000000000000000000000000000000000000081526004018080602001828103825260028152602001807f415300000000000000000000000000000000000000000000000000000000000081525060200191505060405180910390fd5b6000806040518060e00160405290816000820160009054906101000a900473ffffffffffffffffffffffffffffffffffffffff1673ffffffffffffffffffffffffffffffffffffffff1673ffffffffffffffffffffffffffffffffffffffff1681526020016000820160149054906101000a900460020b60020b60020b81526020016000820160179054906101000a900461ffff1661ffff1661ffff1681526020016000820160199054906101000a900461ffff1661ffff1661ffff16815260200160008201601b9054906101000a900461ffff1661ffff1661ffff16815260200160008201601d9054906101000a900460ff1660ff1660ff16815260200160008201601e9054906101000a900460ff16151515158152505090508060c00151610fd7576040517f08c379a00000000000000000000000000000000000000000000000000000000081526004018080602001828103825260038152602001807f4c4f4b000000000000000000000000000000000000000000000000000000000081525060200191505060405180910390fd5b8761105f57806000015173ffffffffffffffffffffffffffffffffffffffff168673ffffffffffffffffffffffffffffffffffffffff1611801561105a575073fffd8963efd1fc6a506488495d951d5263988d2673ffffffffffffffffffffffffffffffffffffffff168673ffffffffffffffffffffffffffffffffffffffff16105b6110cf565b806000015173ffffffffffffffffffffffffffffffffffffffff168673ffffffffffffffffffffffffffffffffffffffff161080156110ce57506401000276a373ffffffffffffffffffffffffffffffffffffffff168673ffffffffffffffffffffffffffffffffffffffff16115b5b611141576040517f08c379a00000000000000000000000000000000000000000000000000000000081526004018080602001828103825260038152602001807f53504c000000000000000000000000000000000000000000000000000000000081525060200191505060405180910390fd5b600080600001601e6101000a81548160ff02191690831515021790555060006040518060c001604052808a6111815760048460a0015160ff16901c611194565b60108460a0015160ff168161119257fe5b065b60ff168152602001600460009054906101000a90046fffffffffffffffffffffffffffffffff166fffffffffffffffffffffffffffffffff1681526020016111da614685565b63ffffffff168152602001600060060b8152602001600073ffffffffffffffffffffffffffffffffffffffff1681526020016000151581525090506000808913905060006040518060e001604052808b815260200160008152602001856000015173ffffffffffffffffffffffffffffffffffffffff168152602001856020015160020b81526020018c61127057600254611274565b6001545b815260200160006fffffffffffffffffffffffffffffffff16815260200184602001516fffffffffffffffffffffffffffffffff1681525090505b60008160000151141580156112f457508873ffffffffffffffffffffffffffffffffffffffff16816040015173ffffffffffffffffffffffffffffffffffffffff1614155b1561193e57611301618589565b8160400151816000019073ffffffffffffffffffffffffffffffffffffffff16908173ffffffffffffffffffffffffffffffffffffffff168152505061137982606001517f00000000000000000000000000000000000000000000000000000000000000008e6006614691909392919063ffffffff16565b826020018360400182151515158152508260020b60020b81525050507ffffffffffffffffffffffffffffffffffffffffffffffffffffffffffff2761860020b816020015160020b12156113fe577ffffffffffffffffffffffffffffffffffffffffffffffffffffffffffff27618816020019060020b908160020b8152505061146a565b7ffffffffffffffffffffffffffffffffffffffffffffffffffffffffffff2761860000360020b816020015160020b1315611469577ffffffffffffffffffffffffffffffffffffffffffffffffffffffffffff27618600003816020019060020b908160020b815250505b5b61147781602001516147e9565b816060019073ffffffffffffffffffffffffffffffffffffffff16908173ffffffffffffffffffffffffffffffffffffffff168152505061156782604001518d6114f3578b73ffffffffffffffffffffffffffffffffffffffff16836060015173ffffffffffffffffffffffffffffffffffffffff1611611527565b8b73ffffffffffffffffffffffffffffffffffffffff16836060015173ffffffffffffffffffffffffffffffffffffffff16105b611535578260600151611537565b8b5b8460c0015185600001517f0000000000000000000000000000000000000000000000000000000000000000614c24565b85604001856080018660a0018760c0018481525084815250848152508473ffffffffffffffffffffffffffffffffffffffff1673ffffffffffffffffffffffffffffffffffffffff16815250505050508215611610576115d08160c00151826080015101614e80565b8260000181815103915081815250506116026115ef8260a00151614e80565b8360200151614eb690919063ffffffff16565b82602001818152505061165f565b61161d8160a00151614e80565b8260000181815101915081815250506116556116428260c00151836080015101614e80565b8360200151614ed990919063ffffffff16565b8260200181815250505b6000846000015160ff1611156116d0576000846000015160ff168260c001518161168557fe5b049050808260c0018181510391508181525050808360a001818151019150906fffffffffffffffffffffffffffffffff1690816fffffffffffffffffffffffffffffffff1681525050505b60008260c001516fffffffffffffffffffffffffffffffff161115611735576117258160c001517001000000000000000000000000000000008460c001516fffffffffffffffffffffffffffffffff16614efc565b8260800181815101915081815250505b806060015173ffffffffffffffffffffffffffffffffffffffff16826040015173ffffffffffffffffffffffffffffffffffffffff1614156118dd578060400151156118af578360a0015161180d576117b7846040015160008760200151886040015188602001518a606001516008614fd6909695949392919063ffffffff16565b85606001866080018273ffffffffffffffffffffffffffffffffffffffff1673ffffffffffffffffffffffffffffffffffffffff168152508260060b60060b815250505060018460a00190151590811515815250505b600061186182602001518e6118245760015461182a565b84608001515b8f61183957856080015161183d565b6002545b886080015189606001518a604001516005615209909695949392919063ffffffff16565b90508c15611870578060000390505b61187e8360c0015182615345565b8360c001906fffffffffffffffffffffffffffffffff1690816fffffffffffffffffffffffffffffffff1681525050505b8b6118be5780602001516118c7565b60018160200151035b826060019060020b908160020b81525050611938565b806000015173ffffffffffffffffffffffffffffffffffffffff16826040015173ffffffffffffffffffffffffffffffffffffffff161461193757611925826040015161549e565b826060019060020b908160020b815250505b5b506112af565b836020015160020b816060015160020b14611a545760008061198c86604001518660400151886020015188602001518a606001518b60800151600861589a909695949392919063ffffffff16565b915091508260400151836060015183836000800160008060000160146000800160176000800160198891906101000a81548161ffff021916908361ffff1602179055508791906101000a81548161ffff021916908361ffff1602179055508691906101000a81548162ffffff021916908360020b62ffffff1602179055508591906101000a81548173ffffffffffffffffffffffffffffffffffffffff021916908373ffffffffffffffffffffffffffffffffffffffff160217905550505050505050611a9c565b80604001516000800160006101000a81548173ffffffffffffffffffffffffffffffffffffffff021916908373ffffffffffffffffffffffffffffffffffffffff1602179055505b8060c001516fffffffffffffffffffffffffffffffff1683602001516fffffffffffffffffffffffffffffffff1614611b0d578060c00151600460006101000a8154816fffffffffffffffffffffffffffffffff02191690836fffffffffffffffffffffffffffffffff1602179055505b8a15611ba457806080015160018190555060008160a001516fffffffffffffffffffffffffffffffff161115611b9f578060a00151600360000160008282829054906101000a90046fffffffffffffffffffffffffffffffff160192506101000a8154816fffffffffffffffffffffffffffffffff02191690836fffffffffffffffffffffffffffffffff1602179055505b611c31565b806080015160028190555060008160a001516fffffffffffffffffffffffffffffffff161115611c30578060a00151600360000160108282829054906101000a90046fffffffffffffffffffffffffffffffff160192506101000a8154816fffffffffffffffffffffffffffffffff02191690836fffffffffffffffffffffffffffffffff1602179055505b5b8115158b151514611c4d57806020015181600001518b03611c5a565b80600001518a0381602001515b80965081975050508a15611de8576000851215611ca057611c9f7f00000000000000000000000000000000000000000000000000000000000000008d87600003615acc565b5b6000611caa615ccd565b90503373ffffffffffffffffffffffffffffffffffffffff1663fa461e3388888c8c6040518563ffffffff1660e01b815260040180858152602001848152602001806020018281038252848482818152602001925080828437600081840152601f19601f82011690508083019250505095505050505050600060405180830381600087803b158015611d3b57600080fd5b505af1158015611d4f573d6000803e3d6000fd5b50505050611d5b615ccd565b611d6e8883615e7790919063ffffffff16565b1115611de2576040517f08c379a00000000000000000000000000000000000000000000000000000000081526004018080602001828103825260038152602001807f494941000000000000000000000000000000000000000000000000000000000081525060200191505060405180910390fd5b50611f64565b6000861215611e2057611e1f7f00000000000000000000000000000000000000000000000000000000000000008d88600003615acc565b5b6000611e2a615e91565b90503373ffffffffffffffffffffffffffffffffffffffff1663fa461e3388888c8c6040518563ffffffff1660e01b815260040180858152602001848152602001806020018281038252848482818152602001925080828437600081840152601f19601f82011690508083019250505095505050505050600060405180830381600087803b158015611ebb57600080fd5b505af1158015611ecf573d6000803e3d6000fd5b50505050611edb615e91565b611eee8783615e7790919063ffffffff16565b1115611f62576040517f08c379a00000000000000000000000000000000000000000000000000000000081526004018080602001828103825260038152602001807f494941000000000000000000000000000000000000000000000000000000000081525060200191505060405180910390fd5b505b8b73ffffffffffffffffffffffffffffffffffffffff163373ffffffffffffffffffffffffffffffffffffffff167fc42079f94a6350d7e6235f29174924f928cc2ac818eb64fed8004e115fbcca67888885604001518660c001518760600151604051808681526020018581526020018473ffffffffffffffffffffffffffffffffffffffff168152602001836fffffffffffffffffffffffffffffffff1681526020018260020b81526020019550505050505060405180910390a3600160008001601e6101000a81548160ff02191690831515021790555050505050965096945050505050565b620100075481565b600460009054906101000a90046fffffffffffffffffffffffffffffffff1681565b60038060000160009054906101000a90046fffffffffffffffffffffffffffffffff16908060000160109054906101000a90046fffffffffffffffffffffffffffffffff16905082565b60088161ffff81106120d157600080fd5b016000915090508060000160009054906101000a900463ffffffff16908060000160049054906101000a900460060b9080600001600b9054906101000a900473ffffffffffffffffffffffffffffffffffffffff169080600001601f9054906101000a900460ff16905084565b60008001601e9054906101000a900460ff166121c2576040517f08c379a00000000000000000000000000000000000000000000000000000000081526004018080602001828103825260038152602001807f4c4f4b000000000000000000000000000000000000000000000000000000000081525060200191505060405180910390fd5b600080600001601e6101000a81548160ff0219169083151502179055506121e761462b565b600080600001601b9054906101000a900461ffff16905060006122168284600861603b9092919063ffffffff16565b90508060008001601b6101000a81548161ffff021916908361ffff1602179055508061ffff168261ffff161461228e577fac49e518f90a358f652e4400164f05a5d8f7e35e7747279bc3a93dbf584e125a8282604051808361ffff1681526020018261ffff1681526020019250505060405180910390a15b5050600160008001601e6101000a81548160ff02191690831515021790555050565b60008060000160009054906101000a900473ffffffffffffffffffffffffffffffffffffffff16908060000160149054906101000a900460020b908060000160179054906101000a900461ffff16908060000160199054906101000a900461ffff169080600001601b9054906101000a900461ffff169080600001601d9054906101000a900460ff169080600001601e9054906101000a900460ff16905087565b60008060008001601e9054906101000a900460ff166123d8576040517f08c379a00000000000000000000000000000000000000000000000000000000081526004018080602001828103825260038152602001807f4c4f4b000000000000000000000000000000000000000000000000000000000081525060200191505060405180910390fd5b600080600001601e6101000a81548160ff0219169083151502179055506000856fffffffffffffffffffffffffffffffff161161241457600080fd5b60008061247960405180608001604052808c73ffffffffffffffffffffffffffffffffffffffff1681526020018b60020b81526020018a60020b815260200161246e8a6fffffffffffffffffffffffffffffffff16616131565b600f0b81525061614a565b9250925050819350809250600080600086111561249b57612498615ccd565b91505b60008511156124af576124ac615e91565b90505b3373ffffffffffffffffffffffffffffffffffffffff1663d348799787878b8b6040518563ffffffff1660e01b815260040180858152602001848152602001806020018281038252848482818152602001925080828437600081840152601f19601f82011690508083019250505095505050505050600060405180830381600087803b15801561253e57600080fd5b505af1158015612552573d6000803e3d6000fd5b5050505060008611156125ef57612567615ccd565b61257a8784615e7790919063ffffffff16565b11156125ee576040517f08c379a00000000000000000000000000000000000000000000000000000000081526004018080602001828103825260028152602001807f4d3000000000000000000000000000000000000000000000000000000000000081525060200191505060405180910390fd5b5b600085111561268857612600615e91565b6126138683615e7790919063ffffffff16565b1115612687576040517f08c379a00000000000000000000000000000000000000000000000000000000081526004018080602001828103825260028152602001807f4d3100000000000000000000000000000000000000000000000000000000000081525060200191505060405180910390fd5b5b8960020b8b60020b8d73ffffffffffffffffffffffffffffffffffffffff167f7a53080ba414158be7ec69b987b5fb7d07dee101fe85488f0853ae16239d0bde338d8b8b604051808573ffffffffffffffffffffffffffffffffffffffff168152602001846fffffffffffffffffffffffffffffffff16815260200183815260200182815260200194505050505060405180910390a450505050600160008001601e6101000a81548160ff021916908315150217905550965096945050505050565b60025481565b60008001601e9054906101000a900460ff166127d4576040517f08c379a00000000000000000000000000000000000000000000000000000000081526004018080602001828103825260038152602001807f4c4f4b000000000000000000000000000000000000000000000000000000000081525060200191505060405180910390fd5b600080600001601e6101000a81548160ff0219169083151502179055506127f961462b565b6000600460009054906101000a90046fffffffffffffffffffffffffffffffff1690506000816fffffffffffffffffffffffffffffffff16116128a4576040517f08c379a00000000000000000000000000000000000000000000000000000000081526004018080602001828103825260018152602001807f4c0000000000000000000000000000000000000000000000000000000000000081525060200191505060405180910390fd5b60006128d9867f000000000000000000000000000000000000000000000000000000000000000062ffffff16620f424061646e565b90506000612910867f000000000000000000000000000000000000000000000000000000000000000062ffffff16620f424061646e565b9050600061291c615ccd565b90506000612928615e91565b9050600089111561295f5761295e7f00000000000000000000000000000000000000000000000000000000000000008b8b615acc565b5b6000881115612994576129937f00000000000000000000000000000000000000000000000000000000000000008b8a615acc565b5b3373ffffffffffffffffffffffffffffffffffffffff1663e9cbafb085858a8a6040518563ffffffff1660e01b815260040180858152602001848152602001806020018281038252848482818152602001925080828437600081840152601f19601f82011690508083019250505095505050505050600060405180830381600087803b158015612a2357600080fd5b505af1158015612a37573d6000803e3d6000fd5b505050506000612a45615ccd565b90506000612a51615e91565b905081612a678786615e7790919063ffffffff16565b1115612adb576040517f08c379a00000000000000000000000000000000000000000000000000000000081526004018080602001828103825260028152602001807f463000000000000000000000000000000000000000000000000000000000000081525060200191505060405180910390fd5b80612aef8685615e7790919063ffffffff16565b1115612b63576040517f08c379a00000000000000000000000000000000000000000000000000000000081526004018080602001828103825260028152602001807f463100000000000000000000000000000000000000000000000000000000000081525060200191505060405180910390fd5b60008483039050600084830390506000821115612c7b576000601060008001601d9054906101000a900460ff1660ff1681612b9a57fe5b0690506000808260ff1614612bbb578160ff168481612bb557fe5b04612bbe565b60005b90506000816fffffffffffffffffffffffffffffffff161115612c395780600360000160008282829054906101000a90046fffffffffffffffffffffffffffffffff160192506101000a8154816fffffffffffffffffffffffffffffffff02191690836fffffffffffffffffffffffffffffffff1602179055505b612c698185037001000000000000000000000000000000008d6fffffffffffffffffffffffffffffffff16614efc565b60016000828254019250508190555050505b6000811115612d7f576000600460008001601d9054906101000a900460ff1660ff16901c90506000808260ff1614612cbf578160ff168381612cb957fe5b04612cc2565b60005b90506000816fffffffffffffffffffffffffffffffff161115612d3d5780600360000160108282829054906101000a90046fffffffffffffffffffffffffffffffff160192506101000a8154816fffffffffffffffffffffffffffffffff02191690836fffffffffffffffffffffffffffffffff1602179055505b612d6d8184037001000000000000000000000000000000008d6fffffffffffffffffffffffffffffffff16614efc565b60026000828254019250508190555050505b8d73ffffffffffffffffffffffffffffffffffffffff163373ffffffffffffffffffffffffffffffffffffffff167fbdbdb71d7860376ba52b25a5028beea23581364a40522f6bcfb86bb1f2dca6338f8f86866040518085815260200184815260200183815260200182815260200194505050505060405180910390a3505050505050505050600160008001601e6101000a81548160ff0219169083151502179055505050505050565b60008060008001601e9054906101000a900460ff16612eb0576040517f08c379a00000000000000000000000000000000000000000000000000000000081526004018080602001828103825260038152602001807f4c4f4b000000000000000000000000000000000000000000000000000000000081525060200191505060405180910390fd5b600080600001601e6101000a81548160ff0219169083151502179055506000612ee733888860076164cc909392919063ffffffff16565b90508060030160009054906101000a90046fffffffffffffffffffffffffffffffff166fffffffffffffffffffffffffffffffff16856fffffffffffffffffffffffffffffffff1611612f3a5784612f5c565b8060030160009054906101000a90046fffffffffffffffffffffffffffffffff165b92508060030160109054906101000a90046fffffffffffffffffffffffffffffffff166fffffffffffffffffffffffffffffffff16846fffffffffffffffffffffffffffffffff1611612faf5783612fd1565b8060030160109054906101000a90046fffffffffffffffffffffffffffffffff165b91506000836fffffffffffffffffffffffffffffffff16111561308857828160030160008282829054906101000a90046fffffffffffffffffffffffffffffffff160392506101000a8154816fffffffffffffffffffffffffffffffff02191690836fffffffffffffffffffffffffffffffff1602179055506130877f000000000000000000000000000000000000000000000000000000000000000089856fffffffffffffffffffffffffffffffff16615acc565b5b6000826fffffffffffffffffffffffffffffffff16111561313d57818160030160108282829054906101000a90046fffffffffffffffffffffffffffffffff160392506101000a8154816fffffffffffffffffffffffffffffffff02191690836fffffffffffffffffffffffffffffffff16021790555061313c7f000000000000000000000000000000000000000000000000000000000000000089846fffffffffffffffffffffffffffffffff16615acc565b5b8560020b8760020b3373ffffffffffffffffffffffffffffffffffffffff167f70935338e69775456a85ddef226c395fb668b63fa0115f5f20610b388e6ca9c08b8787604051808473ffffffffffffffffffffffffffffffffffffffff168152602001836fffffffffffffffffffffffffffffffff168152602001826fffffffffffffffffffffffffffffffff168152602001935050505060405180910390a450600160008001601e6101000a81548160ff0219169083151502179055509550959350505050565b60076020528060005260406000206000915090508060000160009054906101000a90046fffffffffffffffffffffffffffffffff16908060010154908060020154908060030160009054906101000a90046fffffffffffffffffffffffffffffffff16908060030160109054906101000a90046fffffffffffffffffffffffffffffffff16905085565b60066020528060005260406000206000915090505481565b7f000000000000000000000000000000000000000000000000000000000000000081565b60008001601e9054906101000a900460ff1661334f576040517f08c379a00000000000000000000000000000000000000000000000000000000081526004018080602001828103825260038152602001807f4c4f4b000000000000000000000000000000000000000000000000000000000081525060200191505060405180910390fd5b600080600001601e6101000a81548160ff0219169083151502179055507f000000000000000000000000000000000000000000000000000000000000000073ffffffffffffffffffffffffffffffffffffffff16638da5cb5b6040518163ffffffff1660e01b815260040160206040518083038186803b1580156133d257600080fd5b505afa1580156133e6573d6000803e3d6000fd5b505050506040513d60208110156133fc57600080fd5b810190808051906020019092919050505073ffffffffffffffffffffffffffffffffffffffff163373ffffffffffffffffffffffffffffffffffffffff161461344457600080fd5b60008260ff16148061346a575060048260ff16101580156134695750600a8260ff1611155b5b8015613498575060008160ff161480613497575060048160ff16101580156134965750600a8160ff1611155b5b5b6134a157600080fd5b600080600001601d9054906101000a900460ff16905060048260ff16901b830160008001601d6101000a81548160ff021916908360ff1602179055507f973d8d92bb299f4af6ce49b52a8adb85ae46b9f214c4c4fc06ac77401237b13360108260ff168161350b57fe5b0660048360ff16901c8585604051808560ff1681526020018460ff1681526020018360ff1681526020018260ff16815260200194505050505060405180910390a150600160008001601e6101000a81548160ff0219169083151502179055505050565b60008060008001601e9054906101000a900460ff166135f5576040517f08c379a00000000000000000000000000000000000000000000000000000000081526004018080602001828103825260038152602001807f4c4f4b000000000000000000000000000000000000000000000000000000000081525060200191505060405180910390fd5b600080600001601e6101000a81548160ff0219169083151502179055507f000000000000000000000000000000000000000000000000000000000000000073ffffffffffffffffffffffffffffffffffffffff16638da5cb5b6040518163ffffffff1660e01b815260040160206040518083038186803b15801561367857600080fd5b505afa15801561368c573d6000803e3d6000fd5b505050506040513d60208110156136a257600080fd5b810190808051906020019092919050505073ffffffffffffffffffffffffffffffffffffffff163373ffffffffffffffffffffffffffffffffffffffff16146136ea57600080fd5b600360000160009054906101000a90046fffffffffffffffffffffffffffffffff166fffffffffffffffffffffffffffffffff16846fffffffffffffffffffffffffffffffff161161373c578361375f565b600360000160009054906101000a90046fffffffffffffffffffffffffffffffff165b9150600360000160109054906101000a90046fffffffffffffffffffffffffffffffff166fffffffffffffffffffffffffffffffff16836fffffffffffffffffffffffffffffffff16116137b357826137d6565b600360000160109054906101000a90046fffffffffffffffffffffffffffffffff165b90506000826fffffffffffffffffffffffffffffffff1611156138e557600360000160009054906101000a90046fffffffffffffffffffffffffffffffff166fffffffffffffffffffffffffffffffff16826fffffffffffffffffffffffffffffffff16141561384a578180600190039250505b81600360000160008282829054906101000a90046fffffffffffffffffffffffffffffffff160392506101000a8154816fffffffffffffffffffffffffffffffff02191690836fffffffffffffffffffffffffffffffff1602179055506138e47f000000000000000000000000000000000000000000000000000000000000000086846fffffffffffffffffffffffffffffffff16615acc565b5b6000816fffffffffffffffffffffffffffffffff1611156139f257600360000160109054906101000a90046fffffffffffffffffffffffffffffffff166fffffffffffffffffffffffffffffffff16816fffffffffffffffffffffffffffffffff161415613957578080600190039150505b80600360000160108282829054906101000a90046fffffffffffffffffffffffffffffffff160392506101000a8154816fffffffffffffffffffffffffffffffff02191690836fffffffffffffffffffffffffffffffff1602179055506139f17f000000000000000000000000000000000000000000000000000000000000000086836fffffffffffffffffffffffffffffffff16615acc565b5b8473ffffffffffffffffffffffffffffffffffffffff163373ffffffffffffffffffffffffffffffffffffffff167f596b573906218d3411850b26a6b437d6c4522fdb43d2d2386263f86d50b8b151848460405180836fffffffffffffffffffffffffffffffff168152602001826fffffffffffffffffffffffffffffffff1681526020019250505060405180910390a3600160008001601e6101000a81548160ff021916908315150217905550935093915050565b606080613ab361462b565b613b6c613abe614685565b858580806020026020016040519081016040528093929190818152602001838360200280828437600081840152601f19601f820116905080830192505050505050506000800160149054906101000a900460020b6000800160179054906101000a900461ffff16600460009054906101000a90046fffffffffffffffffffffffffffffffff166000800160199054906101000a900461ffff166008616545909695949392919063ffffffff16565b915091509250929050565b60008060008001601e9054906101000a900460ff16613bfe576040517f08c379a00000000000000000000000000000000000000000000000000000000081526004018080602001828103825260038152602001807f4c4f4b000000000000000000000000000000000000000000000000000000000081525060200191505060405180910390fd5b600080600001601e6101000a81548160ff0219169083151502179055506000806000613c8560405180608001604052803373ffffffffffffffffffffffffffffffffffffffff1681526020018a60020b81526020018960020b8152602001613c77896fffffffffffffffffffffffffffffffff16616131565b600003600f0b81525061614a565b9250925092508160000394508060000393506000851180613ca65750600084115b15613d6e57848360030160009054906101000a90046fffffffffffffffffffffffffffffffff1601848460030160109054906101000a90046fffffffffffffffffffffffffffffffff16018460030160008660030160108491906101000a8154816fffffffffffffffffffffffffffffffff02191690836fffffffffffffffffffffffffffffffff1602179055508391906101000a8154816fffffffffffffffffffffffffffffffff02191690836fffffffffffffffffffffffffffffffff16021790555050505b8660020b8860020b3373ffffffffffffffffffffffffffffffffffffffff167f0c396cd989a39f4459b5fa1aed6a9a8dcdbc45908acfd67e028cd568da98982c89898960405180846fffffffffffffffffffffffffffffffff168152602001838152602001828152602001935050505060405180910390a4505050600160008001601e6101000a81548160ff021916908315150217905550935093915050565b6000806000613e1b61462b565b613e258585616700565b6000806000806000806000600560008d60020b60020b815260200190815260200160002090506000600560008d60020b60020b8152602001908152602001600020905060008260030160009054906101000a900460060b8360030160079054906101000a900473ffffffffffffffffffffffffffffffffffffffff1684600301601b9054906101000a900463ffffffff1685600301601f9054906101000a900460ff16809450819850829a50839c505050505080613ee257600080fd5b60008260030160009054906101000a900460060b8360030160079054906101000a900473ffffffffffffffffffffffffffffffffffffffff1684600301601b9054906101000a900463ffffffff1685600301601f9054906101000a900460ff16809450819850829a50839c505050505080613f5c57600080fd5b505050506000806040518060e00160405290816000820160009054906101000a900473ffffffffffffffffffffffffffffffffffffffff1673ffffffffffffffffffffffffffffffffffffffff1673ffffffffffffffffffffffffffffffffffffffff1681526020016000820160149054906101000a900460020b60020b60020b81526020016000820160179054906101000a900461ffff1661ffff1661ffff1681526020016000820160199054906101000a900461ffff1661ffff1661ffff16815260200160008201601b9054906101000a900461ffff1661ffff1661ffff16815260200160008201601d9054906101000a900460ff1660ff1660ff16815260200160008201601e9054906101000a900460ff16151515158152505090508b60020b816020015160020b12156140a85785870384860383850399509950995050505050505050614151565b8a60020b816020015160020b121561413a5760006140c4614685565b905060008061411283600086602001518760400151600460009054906101000a90046fffffffffffffffffffffffffffffffff1689606001516008614fd6909695949392919063ffffffff16565b91509150888a830303878983030386888603039c509c509c5050505050505050505050614151565b868603858503848403995099509950505050505050505b9250925092565b7f000000000000000000000000000000000000000000000000000000000000000081565b7f000000000000000000000000000000000000000000000000000000000000000081565b7f000000000000000000000000000000000000000000000000000000000000000081565b8060018190555050565b7f000000000000000000000000000000000000000000000000000000000000000081565b60015481565b60056020528060005260406000206000915090508060000160009054906101000a90046fffffffffffffffffffffffffffffffff16908060000160109054906101000a9004600f0b908060010154908060020154908060030160009054906101000a900460060b908060030160079054906101000a900473ffffffffffffffffffffffffffffffffffffffff169080600301601b9054906101000a900463ffffffff169080600301601f9054906101000a900460ff16905088565b60008060000160009054906101000a900473ffffffffffffffffffffffffffffffffffffffff1673ffffffffffffffffffffffffffffffffffffffff1614614363576040517f08c379a00000000000000000000000000000000000000000000000000000000081526004018080602001828103825260028152602001807f414900000000000000000000000000000000000000000000000000000000000081525060200191505060405180910390fd5b600061436e8261549e565b905060008061438e61437e614685565b60086168ba90919063ffffffff16565b915091506040518060e001604052808573ffffffffffffffffffffffffffffffffffffffff1681526020018460020b8152602001600061ffff1681526020018361ffff1681526020018261ffff168152602001600060ff168152602001600115158152506000808201518160000160006101000a81548173ffffffffffffffffffffffffffffffffffffffff021916908373ffffffffffffffffffffffffffffffffffffffff16021790555060208201518160000160146101000a81548162ffffff021916908360020b62ffffff16021790555060408201518160000160176101000a81548161ffff021916908361ffff16021790555060608201518160000160196101000a81548161ffff021916908361ffff160217905550608082015181600001601b6101000a81548161ffff021916908361ffff16021790555060a082015181600001601d6101000a81548160ff021916908360ff16021790555060c082015181600001601e6101000a81548160ff0219169083151502179055509050507f98636036cb66a9c19a37435efc1e90142190214e8abeb821bdba3f2990dd4c958484604051808373ffffffffffffffffffffffffffffffffffffffff1681526020018260020b81526020019250505060405180910390a150505050565b8060028190555050565b600080828360020b7ffffffffffffffffffffffffffffffffffffffffffffffffffffffffffff2761860020b816145aa57fe5b050290506000838460020b7ffffffffffffffffffffffffffffffffffffffffffffffffffffffffffff2761860000360020b816145e357fe5b05029050600060018560020b84840360020b816145fc57fe5b050190508062ffffff166fffffffffffffffffffffffffffffffff80168161462057fe5b049350505050919050565b7f000000000000000000000000000000000000000000000000000000000000000073ffffffffffffffffffffffffffffffffffffffff163073ffffffffffffffffffffffffffffffffffffffff161461468357600080fd5b565b60006201000754905090565b60008060008460020b8660020b816146a557fe5b05905060008660020b1280156146ce575060008560020b8760020b816146c757fe5b0760020b14155b156146dd578080600190039150505b8315614761576000806146ef836169e0565b9150915060008160ff166001901b60018360ff166001901b030190506000818b60008660010b60010b815260200190815260200160002054169050600081141595508561474357888360ff16860302614756565b8861474d82616a03565b840360ff168603025b9650505050506147df565b600080614770600184016169e0565b91509150600060018260ff166001901b031990506000818b60008660010b60010b81526020019081526020016000205416905060008114159550856147c257888360ff0360ff166001870101026147d8565b88836147cd83616ade565b0360ff166001870101025b9650505050505b5094509492505050565b60008060008360020b12614800578260020b614808565b8260020b6000035b90507ffffffffffffffffffffffffffffffffffffffffffffffffffffffffffff2761860000360020b8111156148a6576040517f08c379a00000000000000000000000000000000000000000000000000000000081526004018080602001828103825260018152602001807f540000000000000000000000000000000000000000000000000000000000000081525060200191505060405180910390fd5b6000806001831614156148ca577001000000000000000000000000000000006148dc565b6ffffcb933bd6fad37aa2d162d1a5940015b70ffffffffffffffffffffffffffffffffff169050600060028316146149165760806ffff97272373d413259a46990580e213a8202901c90505b6000600483161461493b5760806ffff2e50f5f656932ef12357cf3c7fdcc8202901c90505b600060088316146149605760806fffe5caca7e10e4e61c3624eaa0941cd08202901c90505b600060108316146149855760806fffcb9843d60f6159c9db58835c9266448202901c90505b600060208316146149aa5760806fff973b41fa98c081472e6896dfb254c08202901c90505b600060408316146149cf5760806fff2ea16466c96a3843ec78b326b528618202901c90505b600060808316146149f45760806ffe5dee046a99a2a811c461f1969c30538202901c90505b6000610100831614614a1a5760806ffcbe86c7900a88aedcffc83b479aa3a48202901c90505b6000610200831614614a405760806ff987a7253ac413176f2b074cf7815e548202901c90505b6000610400831614614a665760806ff3392b0822b70005940c7a398e4b70f38202901c90505b6000610800831614614a8c5760806fe7159475a2c29b7443b29c7fa6e889d98202901c90505b6000611000831614614ab25760806fd097f3bdfd2022b8845ad8f792aa58258202901c90505b6000612000831614614ad85760806fa9f746462d870fdf8a65dc1f90e061e58202901c90505b6000614000831614614afe5760806f70d869a156d2a1b890bb3df62baf32f78202901c90505b6000618000831614614b245760806f31be135f97d08fd981231505542fcfa68202901c90505b600062010000831614614b4b5760806f09aa508b5b7a84e1c677de54f3e99bc98202901c90505b600062020000831614614b715760806e5d6af8dedb81196699c329225ee6048202901c90505b600062040000831614614b965760806d2216e584f5fa1ea926041bedfe988202901c90505b600062080000831614614bb95760806b048a170391f7dc42444e8fa28202901c90505b60008460020b1315614bf257807fffffffffffffffffffffffffffffffffffffffffffffffffffffffffffffffff81614bee57fe5b0490505b60006401000000008281614c0257fe5b0614614c0f576001614c12565b60005b60ff16602082901c0192505050919050565b60008060008060008873ffffffffffffffffffffffffffffffffffffffff168a73ffffffffffffffffffffffffffffffffffffffff161015905060008088121590508015614cd3576000614c868989620f42400362ffffff16620f4240614efc565b905082614c9f57614c9a8c8c8c6001616c05565b614cad565b614cac8b8d8c6001616cdf565b5b9550858110614cbe578a9650614ccd565b614cca8c8b8386616e15565b96505b50614d1f565b81614cea57614ce58b8b8b6000616cdf565b614cf8565b614cf78a8c8b6000616c05565b5b9350838860000310614d0c57899550614d1e565b614d1b8b8a8a60000385616e87565b95505b5b60008673ffffffffffffffffffffffffffffffffffffffff168b73ffffffffffffffffffffffffffffffffffffffff161490508215614da657808015614d625750815b614d7857614d73878d8c6001616cdf565b614d7a565b855b9550808015614d87575081155b614d9d57614d98878d8c6000616c05565b614d9f565b845b9450614df0565b808015614db05750815b614dc657614dc18c888c6001616c05565b614dc8565b855b9550808015614dd5575081155b614deb57614de68c888c6000616cdf565b614ded565b845b94505b81158015614e0057508860000385115b15614e0c578860000394505b818015614e4557508a73ffffffffffffffffffffffffffffffffffffffff168773ffffffffffffffffffffffffffffffffffffffff1614155b15614e54578589039350614e71565b614e6e868962ffffff168a620f42400362ffffff1661646e565b93505b50505095509550955095915050565b60007f80000000000000000000000000000000000000000000000000000000000000008210614eae57600080fd5b819050919050565b6000808212151515838385039250821315151514614ed357600080fd5b92915050565b6000808212151515838385019250821215151514614ef657600080fd5b92915050565b600080600080198587098587029250828110838203039150506000811415614f375760008411614f2b57600080fd5b83820492505050614fcf565b808411614f4357600080fd5b600084868809905082811182039150808303925060008586600003169050808604955080840493506001818260000304019050808302841793506000600287600302189050808702600203810290508087026002038102905080870260020381029050808702600203810290508087026002038102905080870260020381029050808502955050505050505b9392505050565b60008060008763ffffffff1614156150f7576000898661ffff1661ffff8110614ffb57fe5b016040518060800160405290816000820160009054906101000a900463ffffffff1663ffffffff1663ffffffff1681526020016000820160049054906101000a900460060b60060b60060b815260200160008201600b9054906101000a900473ffffffffffffffffffffffffffffffffffffffff1673ffffffffffffffffffffffffffffffffffffffff1673ffffffffffffffffffffffffffffffffffffffff16815260200160008201601f9054906101000a900460ff16151515158152505090508863ffffffff16816000015163ffffffff16146150e3576150e0818a8988616ef9565b90505b8060200151816040015192509250506151fd565b600087890390506000806151108c8c858c8c8c8c616fe4565b91509150816000015163ffffffff168363ffffffff1614156151425781602001518260400151945094505050506151fd565b806000015163ffffffff168363ffffffff1614156151705780602001518160400151945094505050506151fd565b60008260000151826000015103905060008360000151850390508063ffffffff168263ffffffff16856020015185602001510360060b816151ad57fe5b05028460200151018263ffffffff168263ffffffff16866040015186604001510373ffffffffffffffffffffffffffffffffffffffff1602816151ec57fe5b048560400151019650965050505050505b97509795505050505050565b6000808860008960020b60020b815260200190815260200160002090508060010154870381600101819055508060020154860381600201819055508060030160079054906101000a900473ffffffffffffffffffffffffffffffffffffffff1685038160030160076101000a81548173ffffffffffffffffffffffffffffffffffffffff021916908373ffffffffffffffffffffffffffffffffffffffff1602179055508060030160009054906101000a900460060b84038160030160006101000a81548166ffffffffffffff021916908360060b66ffffffffffffff16021790555080600301601b9054906101000a900463ffffffff16830381600301601b6101000a81548163ffffffff021916908363ffffffff1602179055508060000160109054906101000a9004600f0b915050979650505050505050565b60008082600f0b12156153f857826fffffffffffffffffffffffffffffffff168260000384039150816fffffffffffffffffffffffffffffffff16106153f3576040517f08c379a00000000000000000000000000000000000000000000000000000000081526004018080602001828103825260028152602001807f4c5300000000000000000000000000000000000000000000000000000000000081525060200191505060405180910390fd5b615498565b826fffffffffffffffffffffffffffffffff168284019150816fffffffffffffffffffffffffffffffff161015615497576040517f08c379a00000000000000000000000000000000000000000000000000000000081526004018080602001828103825260028152602001807f4c4100000000000000000000000000000000000000000000000000000000000081525060200191505060405180910390fd5b5b92915050565b60006401000276a373ffffffffffffffffffffffffffffffffffffffff168273ffffffffffffffffffffffffffffffffffffffff1610158015615520575073fffd8963efd1fc6a506488495d951d5263988d2673ffffffffffffffffffffffffffffffffffffffff168273ffffffffffffffffffffffffffffffffffffffff16105b615592576040517f08c379a00000000000000000000000000000000000000000000000000000000081526004018080602001828103825260018152602001807f520000000000000000000000000000000000000000000000000000000000000081525060200191505060405180910390fd5b600060208373ffffffffffffffffffffffffffffffffffffffff16901b9050600081905060006fffffffffffffffffffffffffffffffff821160071b808217915082811c92505067ffffffffffffffff821160061b808217915082811c92505063ffffffff821160051b808217915082811c92505061ffff821160041b808217915082811c92505060ff821160031b808217915082811c925050600f821160021b808217915082811c9250506003821160011b808217915082811c925050600182118082179150506080811061567057607f810383901c915061567a565b80607f0383901b91505b6000604060808303901b9050828302607f1c92508260801c80603f1b8217915083811c935050828302607f1c92508260801c80603e1b8217915083811c935050828302607f1c92508260801c80603d1b8217915083811c935050828302607f1c92508260801c80603c1b8217915083811c935050828302607f1c92508260801c80603b1b8217915083811c935050828302607f1c92508260801c80603a1b8217915083811c935050828302607f1c92508260801c8060391b8217915083811c935050828302607f1c92508260801c8060381b8217915083811c935050828302607f1c92508260801c8060371b8217915083811c935050828302607f1c92508260801c8060361b8217915083811c935050828302607f1c92508260801c8060351b8217915083811c935050828302607f1c92508260801c8060341b8217915083811c935050828302607f1c92508260801c8060331b8217915083811c935050828302607f1c92508260801c8060321b82179150506000693627a301d71055774c8582029050600060806f028f6481ab7f045a5af012a19d003aaa8303901d9050600060806fdb2df09e81959a81455e260799a0632f8401901d90508060020b8260020b1461588a578873ffffffffffffffffffffffffffffffffffffffff16615861826147e9565b73ffffffffffffffffffffffffffffffffffffffff1611156158835781615885565b805b61588c565b815b975050505050505050919050565b6000806000898961ffff1661ffff81106158b057fe5b016040518060800160405290816000820160009054906101000a900463ffffffff1663ffffffff1663ffffffff1681526020016000820160049054906101000a900460060b60060b60060b815260200160008201600b9054906101000a900473ffffffffffffffffffffffffffffffffffffffff1673ffffffffffffffffffffffffffffffffffffffff1673ffffffffffffffffffffffffffffffffffffffff16815260200160008201601f9054906101000a900460ff16151515158152505090508763ffffffff16816000015163ffffffff1614156159965788859250925050615ac0565b8461ffff168461ffff161180156159b757506001850361ffff168961ffff16145b156159c4578391506159c8565b8491505b8161ffff1660018a0161ffff16816159dc57fe5b0692506159eb81898989616ef9565b8a8461ffff1661ffff81106159fc57fe5b0160008201518160000160006101000a81548163ffffffff021916908363ffffffff16021790555060208201518160000160046101000a81548166ffffffffffffff021916908360060b66ffffffffffffff160217905550604082015181600001600b6101000a81548173ffffffffffffffffffffffffffffffffffffffff021916908373ffffffffffffffffffffffffffffffffffffffff160217905550606082015181600001601f6101000a81548160ff021916908315150217905550905050505b97509795505050505050565b6000808473ffffffffffffffffffffffffffffffffffffffff1663a9059cbb60e01b8585604051602401808373ffffffffffffffffffffffffffffffffffffffff16815260200182815260200192505050604051602081830303815290604052907bffffffffffffffffffffffffffffffffffffffffffffffffffffffff19166020820180517bffffffffffffffffffffffffffffffffffffffffffffffffffffffff83818316178352505050506040518082805190602001908083835b60208310615bad5780518252602082019150602081019050602083039250615b8a565b6001836020036101000a0380198251168184511680821785525050505050509050019150506000604051808303816000865af19150503d8060008114615c0f576040519150601f19603f3d011682016040523d82523d6000602084013e615c14565b606091505b5091509150818015615c545750600081511480615c535750808060200190516020811015615c4157600080fd5b81019080805190602001909291905050505b5b615cc6576040517f08c379a00000000000000000000000000000000000000000000000000000000081526004018080602001828103825260028152602001807f544600000000000000000000000000000000000000000000000000000000000081525060200191505060405180910390fd5b5050505050565b60008060007f000000000000000000000000000000000000000000000000000000000000000073ffffffffffffffffffffffffffffffffffffffff166370a0823160e01b30604051602401808273ffffffffffffffffffffffffffffffffffffffff168152602001915050604051602081830303815290604052907bffffffffffffffffffffffffffffffffffffffffffffffffffffffff19166020820180517bffffffffffffffffffffffffffffffffffffffffffffffffffffffff83818316178352505050506040518082805190602001908083835b60208310615dc85780518252602082019150602081019050602083039250615da5565b6001836020036101000a038019825116818451168082178552505050505050905001915050600060405180830381855afa9150503d8060008114615e28576040519150601f19603f3d011682016040523d82523d6000602084013e615e2d565b606091505b5091509150818015615e4157506020815110155b615e4a57600080fd5b808060200190516020811015615e5f57600080fd5b81019080805190602001909291905050509250505090565b6000828284019150811015615e8b57600080fd5b92915050565b60008060007f000000000000000000000000000000000000000000000000000000000000000073ffffffffffffffffffffffffffffffffffffffff166370a0823160e01b30604051602401808273ffffffffffffffffffffffffffffffffffffffff168152602001915050604051602081830303815290604052907bffffffffffffffffffffffffffffffffffffffffffffffffffffffff19166020820180517bffffffffffffffffffffffffffffffffffffffffffffffffffffffff83818316178352505050506040518082805190602001908083835b60208310615f8c5780518252602082019150602081019050602083039250615f69565b6001836020036101000a038019825116818451168082178552505050505050905001915050600060405180830381855afa9150503d8060008114615fec576040519150601f19603f3d011682016040523d82523d6000602084013e615ff1565b606091505b509150915081801561600557506020815110155b61600e57600080fd5b80806020019051602081101561602357600080fd5b81019080805190602001909291905050509250505090565b6000808361ffff16116160b6576040517f08c379a00000000000000000000000000000000000000000000000000000000081526004018080602001828103825260018152602001807f490000000000000000000000000000000000000000000000000000000000000081525060200191505060405180910390fd5b8261ffff168261ffff16116160cd5782905061612a565b60008390505b8261ffff168161ffff161015616125576001858261ffff1661ffff81106160f657fe5b0160000160006101000a81548163ffffffff021916908363ffffffff16021790555080806001019150506160d3565b508190505b9392505050565b60008182915081600f0b1461614557600080fd5b919050565b600080600061615761462b565b61616984602001518560400151616700565b6000806040518060e00160405290816000820160009054906101000a900473ffffffffffffffffffffffffffffffffffffffff1673ffffffffffffffffffffffffffffffffffffffff1673ffffffffffffffffffffffffffffffffffffffff1681526020016000820160149054906101000a900460020b60020b60020b81526020016000820160179054906101000a900461ffff1661ffff1661ffff1681526020016000820160199054906101000a900461ffff1661ffff1661ffff16815260200160008201601b9054906101000a900461ffff1661ffff1661ffff16815260200160008201601d9054906101000a900460ff1660ff1660ff16815260200160008201601e9054906101000a900460ff16151515158152505090506162a58560000151866020015187604001518860600151856020015161736e565b935060008560600151600f0b1461646657846020015160020b816020015160020b12156162fa576162f36162dc86602001516147e9565b6162e987604001516147e9565b87606001516175c7565b9250616465565b846040015160020b816020015160020b121561643a576000600460009054906101000a90046fffffffffffffffffffffffffffffffff1690506163688260400151616343614685565b84602001518486606001518760800151600861589a909695949392919063ffffffff16565b6000800160176000800160198491906101000a81548161ffff021916908361ffff1602179055508391906101000a81548161ffff021916908361ffff16021790555050506163cb82600001516163c188604001516147e9565b88606001516175c7565b93506163ec6163dd87602001516147e9565b83600001518860600151617612565b92506163fc818760600151615345565b600460006101000a8154816fffffffffffffffffffffffffffffffff02191690836fffffffffffffffffffffffffffffffff16021790555050616464565b61646161644a86602001516147e9565b61645787604001516147e9565b8760600151617612565b91505b5b5b509193909250565b600061647b848484614efc565b90506000828061648757fe5b84860911156164c5577fffffffffffffffffffffffffffffffffffffffffffffffffffffffffffffffff81106164bc57600080fd5b80806001019150505b9392505050565b6000846000858585604051602001808473ffffffffffffffffffffffffffffffffffffffff1660601b81526014018360020b60e81b81526003018260020b60e81b815260030193505050506040516020818303038152906040528051906020012081526020019081526020016000209050949350505050565b60608060008361ffff16116165c2576040517f08c379a00000000000000000000000000000000000000000000000000000000081526004018080602001828103825260018152602001807f490000000000000000000000000000000000000000000000000000000000000081525060200191505060405180910390fd5b865167ffffffffffffffff811180156165da57600080fd5b506040519080825280602002602001820160405280156166095781602001602082028036833780820191505090505b509150865167ffffffffffffffff8111801561662457600080fd5b506040519080825280602002602001820160405280156166535781602001602082028036833780820191505090505b50905060005b87518110156166f3576166848a8a8a848151811061667357fe5b60200260200101518a8a8a8a614fd6565b84838151811061669057fe5b602002602001018484815181106166a357fe5b602002602001018273ffffffffffffffffffffffffffffffffffffffff1673ffffffffffffffffffffffffffffffffffffffff168152508260060b60060b81525050508080600101915050616659565b5097509795505050505050565b8060020b8260020b1261677b576040517f08c379a00000000000000000000000000000000000000000000000000000000081526004018080602001828103825260038152602001807f544c55000000000000000000000000000000000000000000000000000000000081525060200191505060405180910390fd5b7ffffffffffffffffffffffffffffffffffffffffffffffffffffffffffff2761860020b8260020b1215616817576040517f08c379a00000000000000000000000000000000000000000000000000000000081526004018080602001828103825260038152602001807f544c4d000000000000000000000000000000000000000000000000000000000081525060200191505060405180910390fd5b7ffffffffffffffffffffffffffffffffffffffffffffffffffffffffffff2761860000360020b8160020b13156168b6576040517f08c379a00000000000000000000000000000000000000000000000000000000081526004018080602001828103825260038152602001807f54554d000000000000000000000000000000000000000000000000000000000081525060200191505060405180910390fd5b5050565b60008060405180608001604052808463ffffffff168152602001600060060b8152602001600073ffffffffffffffffffffffffffffffffffffffff1681526020016001151581525084600061ffff811061691057fe5b0160008201518160000160006101000a81548163ffffffff021916908363ffffffff16021790555060208201518160000160046101000a81548166ffffffffffffff021916908360060b66ffffffffffffff160217905550604082015181600001600b6101000a81548173ffffffffffffffffffffffffffffffffffffffff021916908373ffffffffffffffffffffffffffffffffffffffff160217905550606082015181600001601f6101000a81548160ff021916908315150217905550905050600180915091509250929050565b60008060088360020b901d91506101008360020b816169fb57fe5b079050915091565b6000808211616a1157600080fd5b7001000000000000000000000000000000008210616a3757608082901c91506080810190505b680100000000000000008210616a5557604082901c91506040810190505b6401000000008210616a6f57602082901c91506020810190505b620100008210616a8757601082901c91506010810190505b6101008210616a9e57600882901c91506008810190505b60108210616ab457600482901c91506004810190505b60048210616aca57600282901c91506002810190505b60028210616ad9576001810190505b919050565b6000808211616aec57600080fd5b60ff905060006fffffffffffffffffffffffffffffffff801683161115616b1857608081039050616b20565b608082901c91505b600067ffffffffffffffff801683161115616b4057604081039050616b48565b604082901c91505b600063ffffffff801683161115616b6457602081039050616b6c565b602082901c91505b600061ffff801683161115616b8657601081039050616b8e565b601082901c91505b600060ff801683161115616ba757600881039050616baf565b600882901c91505b6000600f83161115616bc657600481039050616bce565b600482901c91505b6000600383161115616be557600281039050616bed565b600282901c91505b6000600183161115616c00576001810390505b919050565b60008373ffffffffffffffffffffffffffffffffffffffff168573ffffffffffffffffffffffffffffffffffffffff161115616c4657838580955081965050505b81616c9257616c8d836fffffffffffffffffffffffffffffffff1686860373ffffffffffffffffffffffffffffffffffffffff166c01000000000000000000000000614efc565b616cd5565b616cd4836fffffffffffffffffffffffffffffffff1686860373ffffffffffffffffffffffffffffffffffffffff166c0100000000000000000000000061646e565b5b9050949350505050565b60008373ffffffffffffffffffffffffffffffffffffffff168573ffffffffffffffffffffffffffffffffffffffff161115616d2057838580955081965050505b6000606060ff16846fffffffffffffffffffffffffffffffff16901b9050600086860373ffffffffffffffffffffffffffffffffffffffff16905060008773ffffffffffffffffffffffffffffffffffffffff1611616d7e57600080fd5b83616dc8578673ffffffffffffffffffffffffffffffffffffffff16616dbb83838973ffffffffffffffffffffffffffffffffffffffff16614efc565b81616dc257fe5b04616e09565b616e08616dec83838973ffffffffffffffffffffffffffffffffffffffff1661646e565b8873ffffffffffffffffffffffffffffffffffffffff1661765d565b5b92505050949350505050565b6000808573ffffffffffffffffffffffffffffffffffffffff1611616e3957600080fd5b6000846fffffffffffffffffffffffffffffffff1611616e5857600080fd5b81616e6f57616e6a8585856001617670565b616e7d565b616e7c85858560016177e2565b5b9050949350505050565b6000808573ffffffffffffffffffffffffffffffffffffffff1611616eab57600080fd5b6000846fffffffffffffffffffffffffffffffff1611616eca57600080fd5b81616ee157616edc85858560006177e2565b616eef565b616eee8585856000617670565b5b9050949350505050565b616f016185f7565b600085600001518503905060405180608001604052808663ffffffff1681526020018263ffffffff168660020b0288602001510160060b81526020016000856fffffffffffffffffffffffffffffffff1611616f5e576001616f60565b845b6fffffffffffffffffffffffffffffffff1660808463ffffffff1673ffffffffffffffffffffffffffffffffffffffff16901b73ffffffffffffffffffffffffffffffffffffffff1681616fb057fe5b0488604001510173ffffffffffffffffffffffffffffffffffffffff16815260200160011515815250915050949350505050565b616fec6185f7565b616ff46185f7565b888561ffff1661ffff811061700557fe5b016040518060800160405290816000820160009054906101000a900463ffffffff1663ffffffff1663ffffffff1681526020016000820160049054906101000a900460060b60060b60060b815260200160008201600b9054906101000a900473ffffffffffffffffffffffffffffffffffffffff1673ffffffffffffffffffffffffffffffffffffffff1673ffffffffffffffffffffffffffffffffffffffff16815260200160008201601f9054906101000a900460ff16151515158152505091506170d68883600001518961796c565b1561710e578663ffffffff16826000015163ffffffff1614156170f857617362565b8161710583898988616ef9565b91509150617362565b888361ffff166001870161ffff168161712357fe5b0661ffff1661ffff811061713357fe5b016040518060800160405290816000820160009054906101000a900463ffffffff1663ffffffff1663ffffffff1681526020016000820160049054906101000a900460060b60060b60060b815260200160008201600b9054906101000a900473ffffffffffffffffffffffffffffffffffffffff1673ffffffffffffffffffffffffffffffffffffffff1673ffffffffffffffffffffffffffffffffffffffff16815260200160008201601f9054906101000a900460ff161515151581525050915081606001516172cf5788600061ffff811061720c57fe5b016040518060800160405290816000820160009054906101000a900463ffffffff1663ffffffff1663ffffffff1681526020016000820160049054906101000a900460060b60060b60060b815260200160008201600b9054906101000a900473ffffffffffffffffffffffffffffffffffffffff1673ffffffffffffffffffffffffffffffffffffffff1673ffffffffffffffffffffffffffffffffffffffff16815260200160008201601f9054906101000a900460ff16151515158152505091505b6172de8883600001518961796c565b617350576040517f08c379a00000000000000000000000000000000000000000000000000000000081526004018080602001828103825260038152602001807f4f4c44000000000000000000000000000000000000000000000000000000000081525060200191505060405180910390fd5b61735d8989898887617a34565b915091505b97509795505050505050565b600061738886868660076164cc909392919063ffffffff16565b90506000600154905060006002549050600080600087600f0b1461753b5760006173b0614685565b90506000806174278360008060000160149054906101000a900460020b6000800160179054906101000a900461ffff16600460009054906101000a90046fffffffffffffffffffffffffffffffff166000800160199054906101000a900461ffff166008614fd6909695949392919063ffffffff16565b915091506174728c8a8c8a8a86888a60007f00000000000000000000000000000000000000000000000000000000000000006005617cb7909a9998979695949392919063ffffffff16565b94506174bb8b8a8c8a8a86888a60017f00000000000000000000000000000000000000000000000000000000000000006005617cb7909a9998979695949392919063ffffffff16565b935084156174fa576174f98c7f00000000000000000000000000000000000000000000000000000000000000006006617fb99092919063ffffffff16565b5b8315617537576175368b7f00000000000000000000000000000000000000000000000000000000000000006006617fb99092919063ffffffff16565b5b5050505b60008061755a8b8b8a898960056180319095949392919063ffffffff16565b915091506175758983838a6180f8909392919063ffffffff16565b600089600f0b12156175b857831561759c5761759b8b600561847c90919063ffffffff16565b5b82156175b7576175b68a600561847c90919063ffffffff16565b5b5b50505050505095945050505050565b60008082600f0b126175ed576175e86175e38585856001616cdf565b614e80565b617609565b6176056176008585856000036000616cdf565b614e80565b6000035b90509392505050565b60008082600f0b126176385761763361762e8585856001616c05565b614e80565b617654565b61765061764b8585856000036000616c05565b614e80565b6000035b90509392505050565b6000808284061182840401905092915050565b6000811561772657600073ffffffffffffffffffffffffffffffffffffffff80168411156176c7576176c2846c01000000000000000000000000876fffffffffffffffffffffffffffffffff16614efc565b6176eb565b846fffffffffffffffffffffffffffffffff16606060ff1685901b816176e957fe5b045b905061771e617719828873ffffffffffffffffffffffffffffffffffffffff16615e7790919063ffffffff16565b61855d565b9150506177da565b600073ffffffffffffffffffffffffffffffffffffffff801684111561777557617770846c01000000000000000000000000876fffffffffffffffffffffffffffffffff1661646e565b617799565b617798606060ff1685901b866fffffffffffffffffffffffffffffffff1661765d565b5b9050808673ffffffffffffffffffffffffffffffffffffffff16116177bd57600080fd5b808673ffffffffffffffffffffffffffffffffffffffff16039150505b949350505050565b6000808314156177f457849050617964565b6000606060ff16856fffffffffffffffffffffffffffffffff16901b905082156178db5760008673ffffffffffffffffffffffffffffffffffffffff16858873ffffffffffffffffffffffffffffffffffffffff1687029250828161785557fe5b04141561789757600081830190508281106178955761788b838973ffffffffffffffffffffffffffffffffffffffff168361646e565b9350505050617964565b505b6178d2826178cd878a73ffffffffffffffffffffffffffffffffffffffff1686816178be57fe5b04615e7790919063ffffffff16565b61765d565b92505050617964565b60008673ffffffffffffffffffffffffffffffffffffffff16858873ffffffffffffffffffffffffffffffffffffffff1687029250828161791857fe5b0414801561792557508082115b61792e57600080fd5b6000818303905061795e617959848a73ffffffffffffffffffffffffffffffffffffffff168461646e565b61855d565b93505050505b949350505050565b60008363ffffffff168363ffffffff161115801561799657508363ffffffff168263ffffffff1611155b156179b2578163ffffffff168363ffffffff1611159050617a2d565b60008463ffffffff168463ffffffff16116179da576401000000008463ffffffff16016179e2565b8363ffffffff165b64ffffffffff16905060008563ffffffff168463ffffffff1611617a13576401000000008463ffffffff1601617a1b565b8363ffffffff165b64ffffffffff16905080821115925050505b9392505050565b617a3c6185f7565b617a446185f7565b60008361ffff166001860161ffff1681617a5a57fe5b0661ffff169050600060018561ffff16830103905060005b600115617caa57600282840181617a8557fe5b049050898661ffff168281617a9657fe5b0661ffff8110617aa257fe5b016040518060800160405290816000820160009054906101000a900463ffffffff1663ffffffff1663ffffffff1681526020016000820160049054906101000a900460060b60060b60060b815260200160008201600b9054906101000a900473ffffffffffffffffffffffffffffffffffffffff1673ffffffffffffffffffffffffffffffffffffffff1673ffffffffffffffffffffffffffffffffffffffff16815260200160008201601f9054906101000a900460ff16151515158152505094508460600151617b7857600181019250617a72565b898661ffff166001830181617b8957fe5b0661ffff8110617b9557fe5b016040518060800160405290816000820160009054906101000a900463ffffffff1663ffffffff1663ffffffff1681526020016000820160049054906101000a900460060b60060b60060b815260200160008201600b9054906101000a900473ffffffffffffffffffffffffffffffffffffffff1673ffffffffffffffffffffffffffffffffffffffff1673ffffffffffffffffffffffffffffffffffffffff16815260200160008201601f9054906101000a900460ff16151515158152505093506000617c688a87600001518b61796c565b9050808015617c825750617c818a8a876000015161796c565b5b15617c8d5750617caa565b80617c9d57600182039250617ca4565b6001820193505b50617a72565b5050509550959350505050565b6000808c60008d60020b60020b8152602001908152602001600020905060008160000160009054906101000a90046fffffffffffffffffffffffffffffffff1690506000617d05828d615345565b9050846fffffffffffffffffffffffffffffffff16816fffffffffffffffffffffffffffffffff161115617da1576040517f08c379a00000000000000000000000000000000000000000000000000000000081526004018080602001828103825260028152602001807f4c4f00000000000000000000000000000000000000000000000000000000000081525060200191505060405180910390fd5b6000826fffffffffffffffffffffffffffffffff161415156000826fffffffffffffffffffffffffffffffff16141515141593506000826fffffffffffffffffffffffffffffffff161415617ec0578c60020b8e60020b13617ea2578a8360010181905550898360020181905550888360030160076101000a81548173ffffffffffffffffffffffffffffffffffffffff021916908373ffffffffffffffffffffffffffffffffffffffff160217905550878360030160006101000a81548166ffffffffffffff021916908360060b66ffffffffffffff1602179055508683600301601b6101000a81548163ffffffff021916908363ffffffff1602179055505b600183600301601f6101000a81548160ff0219169083151502179055505b808360000160006101000a8154816fffffffffffffffffffffffffffffffff02191690836fffffffffffffffffffffffffffffffff16021790555085617f3757617f32617f2d8d600f0b8560000160109054906101000a9004600f0b600f0b614ed990919063ffffffff16565b616131565b617f6a565b617f69617f648d600f0b8560000160109054906101000a9004600f0b600f0b614eb690919063ffffffff16565b616131565b5b8360000160106101000a8154816fffffffffffffffffffffffffffffffff0219169083600f0b6fffffffffffffffffffffffffffffffff1602179055505050509b9a5050505050505050505050565b60008160020b8360020b81617fca57fe5b0760020b14617fd857600080fd5b600080617ff38360020b8560020b81617fed57fe5b056169e0565b9150915060008160ff166001901b9050808660008560010b60010b815260200190815260200160002060008282541892505081905550505050505050565b60008060008860008960020b60020b8152602001908152602001600020905060008960008960020b60020b815260200190815260200160002090506000808a60020b8960020b1261808f5783600101549150836002015490506180a2565b8360010154880391508360020154870390505b6000808b60020b8b60020b12156180c65784600101549150846002015490506180d9565b84600101548a0391508460020154890390505b81848b0303975080838a03039650505050505050965096945050505050565b6000846040518060a00160405290816000820160009054906101000a90046fffffffffffffffffffffffffffffffff166fffffffffffffffffffffffffffffffff166fffffffffffffffffffffffffffffffff16815260200160018201548152602001600282015481526020016003820160009054906101000a90046fffffffffffffffffffffffffffffffff166fffffffffffffffffffffffffffffffff166fffffffffffffffffffffffffffffffff1681526020016003820160109054906101000a90046fffffffffffffffffffffffffffffffff166fffffffffffffffffffffffffffffffff166fffffffffffffffffffffffffffffffff1681525050905060008085600f0b141561829f57600082600001516fffffffffffffffffffffffffffffffff1611618293576040517f08c379a00000000000000000000000000000000000000000000000000000000081526004018080602001828103825260028152602001807f4e5000000000000000000000000000000000000000000000000000000000000081525060200191505060405180910390fd5b816000015190506182b0565b6182ad826000015186615345565b90505b60006182ea8360200151860384600001516fffffffffffffffffffffffffffffffff16700100000000000000000000000000000000614efc565b905060006183268460400151860385600001516fffffffffffffffffffffffffffffffff16700100000000000000000000000000000000614efc565b9050600087600f0b1461836f57828860000160006101000a8154816fffffffffffffffffffffffffffffffff02191690836fffffffffffffffffffffffffffffffff1602179055505b8588600101819055508488600201819055506000826fffffffffffffffffffffffffffffffff1611806183b457506000816fffffffffffffffffffffffffffffffff16115b1561847257818860030160008282829054906101000a90046fffffffffffffffffffffffffffffffff160192506101000a8154816fffffffffffffffffffffffffffffffff02191690836fffffffffffffffffffffffffffffffff160217905550808860030160108282829054906101000a90046fffffffffffffffffffffffffffffffff160192506101000a8154816fffffffffffffffffffffffffffffffff02191690836fffffffffffffffffffffffffffffffff1602179055505b5050505050505050565b8160008260020b60020b8152602001908152602001600020600080820160006101000a8154906fffffffffffffffffffffffffffffffff02191690556000820160106101000a8154906fffffffffffffffffffffffffffffffff0219169055600182016000905560028201600090556003820160006101000a81549066ffffffffffffff02191690556003820160076101000a81549073ffffffffffffffffffffffffffffffffffffffff021916905560038201601b6101000a81549063ffffffff021916905560038201601f6101000a81549060ff021916905550505050565b6000818291508173ffffffffffffffffffffffffffffffffffffffff161461858457600080fd5b919050565b6040518060e00160405280600073ffffffffffffffffffffffffffffffffffffffff168152602001600060020b8152602001600015158152602001600073ffffffffffffffffffffffffffffffffffffffff1681526020016000815260200160008152602001600081525090565b6040518060800160405280600063ffffffff168152602001600060060b8152602001600073ffffffffffffffffffffffffffffffffffffffff168152602001600015158152509056fea26469706673582212201627dc9274bd68e786e1af9884681dd6f6befc19fed0a9cf41279d55ee2efd0b64736f6c63430007060033a2646970667358221220b8799ec38e073037f2c471aa4f2ee4a01437742607f0bb417f7c6d4120ca6d0f64736f6c63430007060033",
  "immutableReferences": {},
  "source": "// SPDX-License-Identifier: UNLICENSED\npragma solidity =0.7.6;\n\nimport '../interfaces/IUniswapV3PoolDeployer.sol';\n\nimport './MockTimeUniswapV3Pool.sol';\n\ncontract MockTimeUniswapV3PoolDeployer is IUniswapV3PoolDeployer {\n    struct Parameters {\n        address factory;\n        address token0;\n        address token1;\n        uint24 fee;\n        int24 tickSpacing;\n    }\n\n    Parameters public override parameters;\n\n    event PoolDeployed(address pool);\n\n    function deploy(\n        address factory,\n        address token0,\n        address token1,\n        uint24 fee,\n        int24 tickSpacing\n    ) external returns (address pool) {\n        parameters = Parameters({factory: factory, token0: token0, token1: token1, fee: fee, tickSpacing: tickSpacing});\n        pool = address(\n            new MockTimeUniswapV3Pool{salt: keccak256(abi.encodePacked(token0, token1, fee, tickSpacing))}()\n        );\n        emit PoolDeployed(pool);\n        delete parameters;\n    }\n}\n",
  "sourcePath": "/mnt/c/pr0/blockchain-projects/DeFi_Learning/UniswapV3/UniswapV3Contracts/v3-core/contracts/test/MockTimeUniswapV3PoolDeployer.sol",
  "compiler": {
    "name": "solc",
    "version": "0.7.6+commit.7338295f.Emscripten.clang"
  },
  "schemaVersion": "3.4.4",
  "updatedAt": "2022-10-07T19:09:47.713Z",
  "devdoc": {
    "kind": "dev",
    "methods": {},
    "stateVariables": {
      "parameters": {
        "details": "Called by the pool constructor to fetch the parameters of the pool Returns factory The factory address Returns token0 The first token of the pool by address sort order Returns token1 The second token of the pool by address sort order Returns fee The fee collected upon every swap in the pool, denominated in hundredths of a bip Returns tickSpacing The minimum number of ticks between initialized ticks"
      }
    },
    "version": 1
  },
  "userdoc": {
    "kind": "user",
    "methods": {
      "parameters()": {
        "notice": "Get the parameters to be used in constructing the pool, set transiently during pool creation."
      }
    },
    "version": 1
  }
}