{
  "contractName": "UniswapV3Twap",
  "abi": [
    {
      "inputs": [
        {
          "internalType": "address",
          "name": "_factory",
          "type": "address"
        },
        {
          "internalType": "address",
          "name": "_token0",
          "type": "address"
        },
        {
          "internalType": "address",
          "name": "_token1",
          "type": "address"
        },
        {
          "internalType": "uint24",
          "name": "_fee",
          "type": "uint24"
        }
      ],
      "stateMutability": "nonpayable",
      "type": "constructor"
    },
    {
      "inputs": [],
      "name": "pool",
      "outputs": [
        {
          "internalType": "address",
          "name": "",
          "type": "address"
        }
      ],
      "stateMutability": "view",
      "type": "function"
    },
    {
      "inputs": [],
      "name": "token0",
      "outputs": [
        {
          "internalType": "address",
          "name": "",
          "type": "address"
        }
      ],
      "stateMutability": "view",
      "type": "function"
    },
    {
      "inputs": [],
      "name": "token1",
      "outputs": [
        {
          "internalType": "address",
          "name": "",
          "type": "address"
        }
      ],
      "stateMutability": "view",
      "type": "function"
    },
    {
      "inputs": [
        {
          "internalType": "address",
          "name": "tokenIn",
          "type": "address"
        },
        {
          "internalType": "uint128",
          "name": "amountIn",
          "type": "uint128"
        },
        {
          "internalType": "uint32",
          "name": "secondsAgo",
          "type": "uint32"
        }
      ],
      "name": "estimateAmountOut",
      "outputs": [
        {
          "internalType": "uint256",
          "name": "amountOut",
          "type": "uint256"
        }
      ],
      "stateMutability": "view",
      "type": "function"
    }
  ],
  "bytecode": "0x60e060405234801561001057600080fd5b5060405161110a38038061110a8339818101604052608081101561003357600080fd5b81019080805190602001909291908051906020019092919080519060200190929190805190602001909291905050508273ffffffffffffffffffffffffffffffffffffffff1660808173ffffffffffffffffffffffffffffffffffffffff1660601b815250508173ffffffffffffffffffffffffffffffffffffffff1660a08173ffffffffffffffffffffffffffffffffffffffff1660601b8152505060008473ffffffffffffffffffffffffffffffffffffffff16631698ee828585856040518463ffffffff1660e01b8152600401808473ffffffffffffffffffffffffffffffffffffffff1681526020018373ffffffffffffffffffffffffffffffffffffffff1681526020018262ffffff168152602001935050505060206040518083038186803b15801561016457600080fd5b505afa158015610178573d6000803e3d6000fd5b505050506040513d602081101561018e57600080fd5b81019080805190602001909291905050509050600073ffffffffffffffffffffffffffffffffffffffff168173ffffffffffffffffffffffffffffffffffffffff161415610244576040517f08c379a00000000000000000000000000000000000000000000000000000000081526004018080602001828103825260128152602001807f706f6f6c20646f65736e2774206578697374000000000000000000000000000081525060200191505060405180910390fd5b8073ffffffffffffffffffffffffffffffffffffffff1660c08173ffffffffffffffffffffffffffffffffffffffff1660601b81525050505050505060805160601c60a05160601c60c05160601c610e376102d3600039806101975280610412525080610212528061034f52806106c752508061017352806101bd52806102d652806103295250610e376000f3fe608060405234801561001057600080fd5b506004361061004c5760003560e01c80630dfe16811461005157806316f0115b146100855780638f2e8199146100b9578063d21220a71461013d575b600080fd5b610059610171565b604051808273ffffffffffffffffffffffffffffffffffffffff16815260200191505060405180910390f35b61008d610195565b604051808273ffffffffffffffffffffffffffffffffffffffff16815260200191505060405180910390f35b610127600480360360608110156100cf57600080fd5b81019080803573ffffffffffffffffffffffffffffffffffffffff16906020019092919080356fffffffffffffffffffffffffffffffff169060200190929190803563ffffffff1690602001909291905050506101b9565b6040518082815260200191505060405180910390f35b6101456106c5565b604051808273ffffffffffffffffffffffffffffffffffffffff16815260200191505060405180910390f35b7f000000000000000000000000000000000000000000000000000000000000000081565b7f000000000000000000000000000000000000000000000000000000000000000081565b60007f000000000000000000000000000000000000000000000000000000000000000073ffffffffffffffffffffffffffffffffffffffff168473ffffffffffffffffffffffffffffffffffffffff16148061026057507f000000000000000000000000000000000000000000000000000000000000000073ffffffffffffffffffffffffffffffffffffffff168473ffffffffffffffffffffffffffffffffffffffff16145b6102d2576040517f08c379a000000000000000000000000000000000000000000000000000000000815260040180806020018281038252600d8152602001807f696e76616c696420746f6b656e0000000000000000000000000000000000000081525060200191505060405180910390fd5b60007f000000000000000000000000000000000000000000000000000000000000000073ffffffffffffffffffffffffffffffffffffffff168573ffffffffffffffffffffffffffffffffffffffff161461034d577f000000000000000000000000000000000000000000000000000000000000000061036f565b7f00000000000000000000000000000000000000000000000000000000000000005b90506000600267ffffffffffffffff8111801561038b57600080fd5b506040519080825280602002602001820160405280156103ba5781602001602082028036833780820191505090505b50905083816000815181106103cb57fe5b602002602001019063ffffffff16908163ffffffff16815250506000816001815181106103f457fe5b602002602001019063ffffffff16908163ffffffff168152505060007f000000000000000000000000000000000000000000000000000000000000000073ffffffffffffffffffffffffffffffffffffffff1663883bdbfd836040518263ffffffff1660e01b81526004018080602001828103825283818151815260200191508051906020019060200280838360005b8381101561049f578082015181840152602081019050610484565b505050509050019250505060006040518083038186803b1580156104c257600080fd5b505afa1580156104d6573d6000803e3d6000fd5b505050506040513d6000823e3d601f19601f82011682018060405250604081101561050057600080fd5b810190808051604051939291908464010000000082111561052057600080fd5b8382019150602082018581111561053657600080fd5b825186602082028301116401000000008211171561055357600080fd5b8083526020830192505050908051906020019060200280838360005b8381101561058a57808201518184015260208101905061056f565b50505050905001604052602001805160405193929190846401000000008211156105b357600080fd5b838201915060208201858111156105c957600080fd5b82518660208202830111640100000000821117156105e657600080fd5b8083526020830192505050908051906020019060200280838360005b8381101561061d578082015181840152602081019050610602565b5050505090500160405250505050905060008160008151811061063c57fe5b60200260200101518260018151811061065157fe5b602002602001015103905060008663ffffffff168260060b8161067057fe5b05905060008260060b12801561069c575060008763ffffffff168360060b8161069557fe5b0760060b14155b156106ab578080600190039150505b6106b781898b886106e9565b955050505050509392505050565b7f000000000000000000000000000000000000000000000000000000000000000081565b6000806106f5866108ec565b90506fffffffffffffffffffffffffffffffff80168173ffffffffffffffffffffffffffffffffffffffff16116108065760008173ffffffffffffffffffffffffffffffffffffffff168273ffffffffffffffffffffffffffffffffffffffff160290508373ffffffffffffffffffffffffffffffffffffffff168573ffffffffffffffffffffffffffffffffffffffff16106107c7576107c27801000000000000000000000000000000000000000000000000876fffffffffffffffffffffffffffffffff1683610d27565b6107fe565b6107fd81876fffffffffffffffffffffffffffffffff167801000000000000000000000000000000000000000000000000610d27565b5b9250506108e3565b60006108488273ffffffffffffffffffffffffffffffffffffffff168373ffffffffffffffffffffffffffffffffffffffff1668010000000000000000610d27565b90508373ffffffffffffffffffffffffffffffffffffffff168573ffffffffffffffffffffffffffffffffffffffff16106108b0576108ab700100000000000000000000000000000000876fffffffffffffffffffffffffffffffff1683610d27565b6108df565b6108de81876fffffffffffffffffffffffffffffffff16700100000000000000000000000000000000610d27565b5b9250505b50949350505050565b60008060008360020b12610903578260020b61090b565b8260020b6000035b90507ffffffffffffffffffffffffffffffffffffffffffffffffffffffffffff2761860000360020b8111156109a9576040517f08c379a00000000000000000000000000000000000000000000000000000000081526004018080602001828103825260018152602001807f540000000000000000000000000000000000000000000000000000000000000081525060200191505060405180910390fd5b6000806001831614156109cd577001000000000000000000000000000000006109df565b6ffffcb933bd6fad37aa2d162d1a5940015b70ffffffffffffffffffffffffffffffffff16905060006002831614610a195760806ffff97272373d413259a46990580e213a8202901c90505b60006004831614610a3e5760806ffff2e50f5f656932ef12357cf3c7fdcc8202901c90505b60006008831614610a635760806fffe5caca7e10e4e61c3624eaa0941cd08202901c90505b60006010831614610a885760806fffcb9843d60f6159c9db58835c9266448202901c90505b60006020831614610aad5760806fff973b41fa98c081472e6896dfb254c08202901c90505b60006040831614610ad25760806fff2ea16466c96a3843ec78b326b528618202901c90505b60006080831614610af75760806ffe5dee046a99a2a811c461f1969c30538202901c90505b6000610100831614610b1d5760806ffcbe86c7900a88aedcffc83b479aa3a48202901c90505b6000610200831614610b435760806ff987a7253ac413176f2b074cf7815e548202901c90505b6000610400831614610b695760806ff3392b0822b70005940c7a398e4b70f38202901c90505b6000610800831614610b8f5760806fe7159475a2c29b7443b29c7fa6e889d98202901c90505b6000611000831614610bb55760806fd097f3bdfd2022b8845ad8f792aa58258202901c90505b6000612000831614610bdb5760806fa9f746462d870fdf8a65dc1f90e061e58202901c90505b6000614000831614610c015760806f70d869a156d2a1b890bb3df62baf32f78202901c90505b6000618000831614610c275760806f31be135f97d08fd981231505542fcfa68202901c90505b600062010000831614610c4e5760806f09aa508b5b7a84e1c677de54f3e99bc98202901c90505b600062020000831614610c745760806e5d6af8dedb81196699c329225ee6048202901c90505b600062040000831614610c995760806d2216e584f5fa1ea926041bedfe988202901c90505b600062080000831614610cbc5760806b048a170391f7dc42444e8fa28202901c90505b60008460020b1315610cf557807fffffffffffffffffffffffffffffffffffffffffffffffffffffffffffffffff81610cf157fe5b0490505b60006401000000008281610d0557fe5b0614610d12576001610d15565b60005b60ff16602082901c0192505050919050565b600080600080198587098587029250828110838203039150506000811415610d625760008411610d5657600080fd5b83820492505050610dfa565b808411610d6e57600080fd5b600084868809905082811182039150808303925060008586600003169050808604955080840493506001818260000304019050808302841793506000600287600302189050808702600203810290508087026002038102905080870260020381029050808702600203810290508087026002038102905080870260020381029050808502955050505050505b939250505056fea2646970667358221220935aad40b7a2d60c4003c31df644e0532ea84a24ec860b5ee275760eac24744164736f6c63430007060033",
  "immutableReferences": {
    "1827": [
      {
        "length": 32,
        "start": 371
      },
      {
        "length": 32,
        "start": 445
      },
      {
        "length": 32,
        "start": 726
      },
      {
        "length": 32,
        "start": 809
      }
    ],
    "1829": [
      {
        "length": 32,
        "start": 530
      },
      {
        "length": 32,
        "start": 847
      },
      {
        "length": 32,
        "start": 1735
      }
    ],
    "1831": [
      {
        "length": 32,
        "start": 407
      },
      {
        "length": 32,
        "start": 1042
      }
    ]
  },
  "source": "//SPDX-License-Identifier: MIT\r\npragma solidity 0.7.6;\r\n\r\nimport \"@uniswap/v3-core/contracts/interfaces/IUniswapV3Factory.sol\";\r\nimport \"@uniswap/v3-periphery/contracts/libraries/OracleLibrary.sol\";\r\n\r\ncontract UniswapV3Twap {\r\n    address public immutable token0;\r\n    address public immutable token1;\r\n    address public immutable pool;\r\n\r\n    constructor(\r\n        address _factory,\r\n        address _token0,\r\n        address _token1,\r\n        uint24 _fee\r\n    ) {\r\n        token0 = _token0;\r\n        token1 = _token1;\r\n\r\n        address _pool = IUniswapV3Factory(_factory).getPool(\r\n            _token0,\r\n            _token1,\r\n            _fee\r\n        );\r\n        require(_pool != address(0), \"pool doesn't exist\");\r\n\r\n        pool = _pool;\r\n    }\r\n\r\n    function estimateAmountOut(\r\n        address tokenIn,\r\n        uint128 amountIn,\r\n        uint32 secondsAgo\r\n    ) external view returns (uint amountOut) {\r\n        require(tokenIn == token0 || tokenIn == token1, \"invalid token\");\r\n\r\n        address tokenOut = tokenIn == token0 ? token1 : token0;\r\n\r\n        // (int24 tick, ) = OracleLibrary.consult(pool, secondsAgo);\r\n\r\n        // Code copied from OracleLibrary.sol, consult()\r\n        uint32[] memory secondsAgos = new uint32[](2);\r\n        secondsAgos[0] = secondsAgo;\r\n        secondsAgos[1] = 0;\r\n\r\n        // int56 since tick * time = int24 * uint32\r\n        // 56 = 24 + 32\r\n        (int56[] memory tickCumulatives, ) = IUniswapV3Pool(pool).observe(\r\n            secondsAgos\r\n        );\r\n\r\n        int56 tickCumulativesDelta = tickCumulatives[1] - tickCumulatives[0];\r\n\r\n        // int56 / uint32 = int24\r\n        int24 tick = int24(tickCumulativesDelta / secondsAgo);\r\n        // Always round to negative infinity\r\n        /*\r\n        int doesn't round down when it is negative\r\n        int56 a = -3\r\n        -3 / 10 = -3.3333... so round down to -4\r\n        but we get\r\n        a / 10 = -3\r\n        so if tickCumulativeDelta < 0 and division has remainder, then round\r\n        down\r\n        */\r\n        if (\r\n            tickCumulativesDelta < 0 && (tickCumulativesDelta % secondsAgo != 0)\r\n        ) {\r\n            tick--;\r\n        }\r\n\r\n        amountOut = OracleLibrary.getQuoteAtTick(\r\n            tick,\r\n            amountIn,\r\n            tokenIn,\r\n            tokenOut\r\n        );\r\n    }\r\n}",
  "sourcePath": "/mnt/c/pr0/blockchain-projects/DeFi_Learning/UniswapV3/solidity_0.7.6/contracts/UniswapV3Twap.sol",
  "compiler": {
    "name": "solc",
    "version": "0.7.6+commit.7338295f.Emscripten.clang"
  },
  "schemaVersion": "3.4.4",
  "updatedAt": "2022-10-07T16:23:21.524Z",
  "devdoc": {
    "kind": "dev",
    "methods": {},
    "version": 1
  },
  "userdoc": {
    "kind": "user",
    "methods": {},
    "version": 1
  }
}