{
  "contractName": "UniswapUtilities",
  "abi": [
    {
      "inputs": [
        {
          "internalType": "address",
          "name": "tokenPair",
          "type": "address"
        }
      ],
      "name": "getReserves",
      "outputs": [
        {
          "internalType": "uint112",
          "name": "reserve0",
          "type": "uint112"
        },
        {
          "internalType": "uint112",
          "name": "reserve1",
          "type": "uint112"
        },
        {
          "internalType": "uint32",
          "name": "blockTimestampLast",
          "type": "uint32"
        }
      ],
      "stateMutability": "view",
      "type": "function",
      "constant": true
    }
  ],
  "bytecode": "0x608060405234801561001057600080fd5b506101cf806100206000396000f3fe608060405234801561001057600080fd5b506004361061002b5760003560e01c80633e99c1e414610030575b600080fd5b6100726004803603602081101561004657600080fd5b81019080803573ffffffffffffffffffffffffffffffffffffffff1690602001909291905050506100e2565b60405180846dffffffffffffffffffffffffffff166dffffffffffffffffffffffffffff168152602001836dffffffffffffffffffffffffffff166dffffffffffffffffffffffffffff1681526020018263ffffffff1663ffffffff168152602001935050505060405180910390f35b6000806000806000808673ffffffffffffffffffffffffffffffffffffffff16630902f1ac6040518163ffffffff1660e01b815260040160606040518083038186803b15801561013157600080fd5b505afa158015610145573d6000803e3d6000fd5b505050506040513d606081101561015b57600080fd5b81019080805190602001909291908051906020019092919080519060200190929190505050925092509250828282955095509550505050919390925056fea26469706673582212209d365face7015ca049db2f566428fdf64f122c24914ebcdb8fb4f15967a02bae64736f6c63430006060033",
  "immutableReferences": {},
  "source": "pragma solidity ^0.6.6;\r\nimport '@uniswap/v2-core/contracts/interfaces/IUniswapV2Pair.sol';\r\n\r\ncontract UniswapUtilities {\r\n  function getReserves(address tokenPair) external view returns (uint112 reserve0, uint112 reserve1, uint32 blockTimestampLast) {\r\n    (uint112 reserve0, uint112 reserve1, uint32 blockTimestampLast) = IUniswapV2Pair(tokenPair).getReserves();\r\n    return (reserve0,reserve1,blockTimestampLast);\r\n  }\r\n}\r\n\r\n\r\n",
  "sourcePath": "/mnt/c/pr0/blockchain-projects/Uniswap/Liquidity_Value_Calculator/IntegrationContractsWithUniswap/contracts/UniswapUtilities.sol",
  "compiler": {
    "name": "solc",
    "version": "0.6.6+commit.6c089d02.Emscripten.clang"
  },
  "schemaVersion": "3.4.4",
  "updatedAt": "2022-09-11T19:14:37.442Z",
  "networkType": "ethereum",
  "devdoc": {
    "methods": {}
  },
  "userdoc": {
    "methods": {}
  }
}