{
  "contractName": "UniswapOptimal",
  "abi": [
    {
      "inputs": [
        {
          "internalType": "uint256",
          "name": "r",
          "type": "uint256"
        },
        {
          "internalType": "uint256",
          "name": "a",
          "type": "uint256"
        }
      ],
      "name": "getSwapAmount",
      "outputs": [
        {
          "internalType": "uint256",
          "name": "",
          "type": "uint256"
        }
      ],
      "stateMutability": "pure",
      "type": "function",
      "constant": true
    },
    {
      "inputs": [
        {
          "internalType": "address",
          "name": "_tokenA",
          "type": "address"
        },
        {
          "internalType": "address",
          "name": "_tokenB",
          "type": "address"
        },
        {
          "internalType": "uint256",
          "name": "_amountA",
          "type": "uint256"
        }
      ],
      "name": "zap",
      "outputs": [],
      "stateMutability": "nonpayable",
      "type": "function"
    },
    {
      "inputs": [
        {
          "internalType": "address",
          "name": "_tokenA",
          "type": "address"
        },
        {
          "internalType": "address",
          "name": "_tokenB",
          "type": "address"
        },
        {
          "internalType": "uint256",
          "name": "_amountA",
          "type": "uint256"
        }
      ],
      "name": "subOptimalZap",
      "outputs": [],
      "stateMutability": "nonpayable",
      "type": "function"
    },
    {
      "inputs": [
        {
          "internalType": "address",
          "name": "_tokenA",
          "type": "address"
        },
        {
          "internalType": "address",
          "name": "_tokenB",
          "type": "address"
        }
      ],
      "name": "getPair",
      "outputs": [
        {
          "internalType": "address",
          "name": "",
          "type": "address"
        }
      ],
      "stateMutability": "view",
      "type": "function",
      "constant": true
    }
  ],
  "bytecode": "0x608060405234801561001057600080fd5b50611431806100206000396000f3fe608060405234801561001057600080fd5b506004361061004c5760003560e01c8063368519f31461005157806347ce3e691461009d578063750971241461010b578063e6a4390514610179575b600080fd5b6100876004803603604081101561006757600080fd5b81019080803590602001909291908035906020019092919050505061021d565b6040518082815260200191505060405180910390f35b610109600480360360608110156100b357600080fd5b81019080803573ffffffffffffffffffffffffffffffffffffffff169060200190929190803573ffffffffffffffffffffffffffffffffffffffff1690602001909291908035906020019092919050505061029f565b005b6101776004803603606081101561012157600080fd5b81019080803573ffffffffffffffffffffffffffffffffffffffff169060200190929190803573ffffffffffffffffffffffffffffffffffffffff16906020019092919080359060200190929190505050610748565b005b6101db6004803603604081101561018f57600080fd5b81019080803573ffffffffffffffffffffffffffffffffffffffff169060200190929190803573ffffffffffffffffffffffffffffffffffffffff16906020019092919050505061086c565b604051808273ffffffffffffffffffffffffffffffffffffffff1673ffffffffffffffffffffffffffffffffffffffff16815260200191505060405180910390f35b60006107ca61028f61023a6107cd8661097690919063ffffffff16565b61028161027c610256623cda208861097690919063ffffffff16565b61026c623cda298a61097690919063ffffffff16565b018861097690919063ffffffff16565b6109fc565b610a5e90919063ffffffff16565b8161029657fe5b04905092915050565b73f25812889146372f9614c499228620eb7017a56973ffffffffffffffffffffffffffffffffffffffff168373ffffffffffffffffffffffffffffffffffffffff16148061032c575073f25812889146372f9614c499228620eb7017a56973ffffffffffffffffffffffffffffffffffffffff168273ffffffffffffffffffffffffffffffffffffffff16145b61039e576040517f08c379a00000000000000000000000000000000000000000000000000000000081526004018080602001828103825260058152602001807f217765746800000000000000000000000000000000000000000000000000000081525060200191505060405180910390fd5b8273ffffffffffffffffffffffffffffffffffffffff166323b872dd3330846040518463ffffffff1660e01b8152600401808473ffffffffffffffffffffffffffffffffffffffff1673ffffffffffffffffffffffffffffffffffffffff1681526020018373ffffffffffffffffffffffffffffffffffffffff1673ffffffffffffffffffffffffffffffffffffffff1681526020018281526020019350505050602060405180830381600087803b15801561045957600080fd5b505af115801561046d573d6000803e3d6000fd5b505050506040513d602081101561048357600080fd5b810190808051906020019092919050505050600073c608f0718bea3563605aa652589767cb35fcd05d73ffffffffffffffffffffffffffffffffffffffff1663e6a4390585856040518363ffffffff1660e01b8152600401808373ffffffffffffffffffffffffffffffffffffffff1673ffffffffffffffffffffffffffffffffffffffff1681526020018273ffffffffffffffffffffffffffffffffffffffff1673ffffffffffffffffffffffffffffffffffffffff1681526020019250505060206040518083038186803b15801561055c57600080fd5b505afa158015610570573d6000803e3d6000fd5b505050506040513d602081101561058657600080fd5b810190808051906020019092919050505090506000808273ffffffffffffffffffffffffffffffffffffffff16630902f1ac6040518163ffffffff1660e01b815260040160606040518083038186803b1580156105e257600080fd5b505afa1580156105f6573d6000803e3d6000fd5b505050506040513d606081101561060c57600080fd5b81019080805190602001909291908051906020019092919080519060200190929190505050506dffffffffffffffffffffffffffff1691506dffffffffffffffffffffffffffff16915060008673ffffffffffffffffffffffffffffffffffffffff168473ffffffffffffffffffffffffffffffffffffffff16630dfe16816040518163ffffffff1660e01b815260040160206040518083038186803b1580156106b557600080fd5b505afa1580156106c9573d6000803e3d6000fd5b505050506040513d60208110156106df57600080fd5b810190808051906020019092919050505073ffffffffffffffffffffffffffffffffffffffff16141561071d57610716838661021d565b905061072a565b610727828661021d565b90505b610735878783610ae1565b61073f8787610eaf565b50505050505050565b8273ffffffffffffffffffffffffffffffffffffffff166323b872dd3330846040518463ffffffff1660e01b8152600401808473ffffffffffffffffffffffffffffffffffffffff1673ffffffffffffffffffffffffffffffffffffffff1681526020018373ffffffffffffffffffffffffffffffffffffffff1673ffffffffffffffffffffffffffffffffffffffff1681526020018281526020019350505050602060405180830381600087803b15801561080357600080fd5b505af1158015610817573d6000803e3d6000fd5b505050506040513d602081101561082d57600080fd5b81019080805190602001909291905050505061085d838361085860028561135190919063ffffffff16565b610ae1565b6108678383610eaf565b505050565b600073c608f0718bea3563605aa652589767cb35fcd05d73ffffffffffffffffffffffffffffffffffffffff1663e6a4390584846040518363ffffffff1660e01b8152600401808373ffffffffffffffffffffffffffffffffffffffff1673ffffffffffffffffffffffffffffffffffffffff1681526020018273ffffffffffffffffffffffffffffffffffffffff1673ffffffffffffffffffffffffffffffffffffffff1681526020019250505060206040518083038186803b15801561093357600080fd5b505afa158015610947573d6000803e3d6000fd5b505050506040513d602081101561095d57600080fd5b8101908080519060200190929190505050905092915050565b60008083141561098957600090506109f6565b600082840290508284828161099a57fe5b04146109f1576040517f08c379a00000000000000000000000000000000000000000000000000000000081526004018080602001828103825260218152602001806113db6021913960400191505060405180910390fd5b809150505b92915050565b60006003821115610a4b578190506000600160028481610a1857fe5b040190505b81811015610a4557809150600281828581610a3457fe5b040181610a3d57fe5b049050610a1d565b50610a59565b60008214610a5857600190505b5b919050565b600082821115610ad6576040517f08c379a000000000000000000000000000000000000000000000000000000000815260040180806020018281038252601e8152602001807f536166654d6174683a207375627472616374696f6e206f766572666c6f77000081525060200191505060405180910390fd5b818303905092915050565b8273ffffffffffffffffffffffffffffffffffffffff1663095ea7b37319326b7f6d45e40fdb04c2cd7c47147c6fa18d92836040518363ffffffff1660e01b8152600401808373ffffffffffffffffffffffffffffffffffffffff1673ffffffffffffffffffffffffffffffffffffffff16815260200182815260200192505050602060405180830381600087803b158015610b7c57600080fd5b505af1158015610b90573d6000803e3d6000fd5b505050506040513d6020811015610ba657600080fd5b8101908080519060200190929190505050506060600267ffffffffffffffff81118015610bd257600080fd5b50604051908082528060200260200182016040528015610c015781602001602082028036833780820191505090505b509050600267ffffffffffffffff81118015610c1c57600080fd5b50604051908082528060200260200182016040528015610c4b5781602001602082028036833780820191505090505b5090508381600081518110610c5c57fe5b602002602001019073ffffffffffffffffffffffffffffffffffffffff16908173ffffffffffffffffffffffffffffffffffffffff16815250508281600181518110610ca457fe5b602002602001019073ffffffffffffffffffffffffffffffffffffffff16908173ffffffffffffffffffffffffffffffffffffffff16815250507319326b7f6d45e40fdb04c2cd7c47147c6fa18d9273ffffffffffffffffffffffffffffffffffffffff166338ed17398360018430426040518663ffffffff1660e01b815260040180868152602001858152602001806020018473ffffffffffffffffffffffffffffffffffffffff1673ffffffffffffffffffffffffffffffffffffffff168152602001838152602001828103825285818151815260200191508051906020019060200280838360005b83811015610daa578082015181840152602081019050610d8f565b505050509050019650505050505050600060405180830381600087803b158015610dd357600080fd5b505af1158015610de7573d6000803e3d6000fd5b505050506040513d6000823e3d601f19601f820116820180604052506020811015610e1157600080fd5b8101908080516040519392919084640100000000821115610e3157600080fd5b83820191506020820185811115610e4757600080fd5b8251866020820283011164010000000082111715610e6457600080fd5b8083526020830192505050908051906020019060200280838360005b83811015610e9b578082015181840152602081019050610e80565b505050509050016040525050505050505050565b60008273ffffffffffffffffffffffffffffffffffffffff166370a08231306040518263ffffffff1660e01b8152600401808273ffffffffffffffffffffffffffffffffffffffff1673ffffffffffffffffffffffffffffffffffffffff16815260200191505060206040518083038186803b158015610f2e57600080fd5b505afa158015610f42573d6000803e3d6000fd5b505050506040513d6020811015610f5857600080fd5b8101908080519060200190929190505050905060008273ffffffffffffffffffffffffffffffffffffffff166370a08231306040518263ffffffff1660e01b8152600401808273ffffffffffffffffffffffffffffffffffffffff1673ffffffffffffffffffffffffffffffffffffffff16815260200191505060206040518083038186803b158015610fea57600080fd5b505afa158015610ffe573d6000803e3d6000fd5b505050506040513d602081101561101457600080fd5b810190808051906020019092919050505090508373ffffffffffffffffffffffffffffffffffffffff1663095ea7b37319326b7f6d45e40fdb04c2cd7c47147c6fa18d92846040518363ffffffff1660e01b8152600401808373ffffffffffffffffffffffffffffffffffffffff1673ffffffffffffffffffffffffffffffffffffffff16815260200182815260200192505050602060405180830381600087803b1580156110c257600080fd5b505af11580156110d6573d6000803e3d6000fd5b505050506040513d60208110156110ec57600080fd5b8101908080519060200190929190505050508273ffffffffffffffffffffffffffffffffffffffff1663095ea7b37319326b7f6d45e40fdb04c2cd7c47147c6fa18d92836040518363ffffffff1660e01b8152600401808373ffffffffffffffffffffffffffffffffffffffff1673ffffffffffffffffffffffffffffffffffffffff16815260200182815260200192505050602060405180830381600087803b15801561119957600080fd5b505af11580156111ad573d6000803e3d6000fd5b505050506040513d60208110156111c357600080fd5b8101908080519060200190929190505050507319326b7f6d45e40fdb04c2cd7c47147c6fa18d9273ffffffffffffffffffffffffffffffffffffffff1663e8e337008585858560008030426040518963ffffffff1660e01b8152600401808973ffffffffffffffffffffffffffffffffffffffff1673ffffffffffffffffffffffffffffffffffffffff1681526020018873ffffffffffffffffffffffffffffffffffffffff1673ffffffffffffffffffffffffffffffffffffffff1681526020018781526020018681526020018581526020018481526020018373ffffffffffffffffffffffffffffffffffffffff1673ffffffffffffffffffffffffffffffffffffffff16815260200182815260200198505050505050505050606060405180830381600087803b1580156112f957600080fd5b505af115801561130d573d6000803e3d6000fd5b505050506040513d606081101561132357600080fd5b8101908080519060200190929190805190602001909291908051906020019092919050505050505050505050565b60008082116113c8576040517f08c379a000000000000000000000000000000000000000000000000000000000815260040180806020018281038252601a8152602001807f536166654d6174683a206469766973696f6e206279207a65726f00000000000081525060200191505060405180910390fd5b8183816113d157fe5b0490509291505056fe536166654d6174683a206d756c7469706c69636174696f6e206f766572666c6f77a2646970667358221220c0eb86606ab434b67c6473913b31d64ebedc735dd492c0506d1978922acf862c64736f6c63430006060033",
  "immutableReferences": {},
  "source": "// SPDX-License-Identifier: MIT\r\npragma solidity ^0.6.6;\r\n\r\nimport \"./interfaces/SafeMath.sol\";\r\nimport \"./interfaces/IERC20.sol\";\r\nimport \"@uniswap/v2-periphery/contracts/interfaces/IUniswapV2Router02.sol\";\r\nimport \"@uniswap/v2-core/contracts/interfaces/IUniswapV2Factory.sol\";\r\nimport \"@uniswap/v2-core/contracts/interfaces/IUniswapV2Pair.sol\";\r\n\r\n/**\r\n * @dev These functions only requires how many tokens from one of the two tokens in a pool will be added as liquidity\r\n * internally, the functions calculates how many tokens of the other token will be required to perform a swap using all the tokens that the user wants to add as liquidity\r\n * Once the functions have estimated the required tokens, a swap is performed to get the exact amount of the token B so all the tokens A can be added as liquidity\r\n * After the swap is perfomed, the token A & token B are sent as liquidity to the pool\r\n * And, voahala, no tokens are left, all the token A was added as liquidity and the reserve ratio in the pool is remain\r\n*/\r\ncontract UniswapOptimal {\r\n  using SafeMath for uint;\r\n\r\n  address private constant UNISWAP_FACTORY = 0xC608F0718beA3563605aa652589767Cb35fcD05D; //Ganache\r\n  address private constant UNISWAP_ROUTER = 0x19326b7F6d45e40fDb04C2Cd7c47147c6FA18D92;  //Ganache\r\n  address private constant WETH = 0xf25812889146372f9614c499228620EB7017A569;            //Ganache\r\n\r\n  // import \"@uniswap/lib/contracts/libraries/Babylonian.sol\";\r\n  function sqrt(uint y) internal pure returns (uint z) {\r\n    if (y > 3) {\r\n      z = y;\r\n      uint x = y / 2 + 1;\r\n      while (x < z) {\r\n        z = x;\r\n        x = (y / x + x) / 2;\r\n      }\r\n    } else if (y != 0) {\r\n      z = 1;\r\n    }\r\n    // else z = 0 (default value)\r\n  }\r\n\r\n  /*\r\n  s = optimal swap amount\r\n  r = amount of reserve for token a - reserve pool for token a\r\n  a = amount of token a the user currently has (not added to reserve yet)\r\n  f = swap fee percent\r\n  s = (sqrt(((2 - f)r)^2 + 4(1 - f)ar) - (2 - f)r) / (2(1 - f))\r\n  */\r\n  function getSwapAmount(uint r, uint a) public pure returns (uint) {\r\n    return (sqrt(r.mul(r.mul(3988009) + a.mul(3988000))).sub(r.mul(1997))) / 1994;\r\n  }\r\n\r\n  /* optimal one-sided supply\r\n  1. swap optimal amount from token A to token B\r\n  2. add liquidity\r\n  */\r\n  function zap(\r\n    address _tokenA,\r\n    address _tokenB,\r\n    uint _amountA\r\n  ) external {\r\n    require(_tokenA == WETH || _tokenB == WETH, \"!weth\");\r\n\r\n    IERC20(_tokenA).transferFrom(msg.sender, address(this), _amountA);\r\n\r\n    address pair = IUniswapV2Factory(UNISWAP_FACTORY).getPair(_tokenA, _tokenB);\r\n    (uint reserve0, uint reserve1, ) = IUniswapV2Pair(pair).getReserves();\r\n\r\n    uint swapAmount;\r\n    if (IUniswapV2Pair(pair).token0() == _tokenA) {\r\n      // swap from token0 to token1\r\n      swapAmount = getSwapAmount(reserve0, _amountA);\r\n    } else {\r\n      // swap from token1 to token0\r\n      swapAmount = getSwapAmount(reserve1, _amountA);\r\n    }\r\n    // Swaps tokensA for the optimal amount of tokensB so all the tokensA (what is left) can be added as liquidity\r\n    _swap(_tokenA, _tokenB, swapAmount);\r\n    // Add as liquidity what is left from tokenA after swapping the optimal amount of tokensB to add all the tokenA liquidity\r\n    _addLiquidity(_tokenA, _tokenB);\r\n  }\r\n\r\n  /* sub-optimal one-sided supply\r\n  1. swap half of token A to token B\r\n  2. add liquidity\r\n  */\r\n  function subOptimalZap(\r\n    address _tokenA,\r\n    address _tokenB,\r\n    uint _amountA\r\n  ) external {\r\n    IERC20(_tokenA).transferFrom(msg.sender, address(this), _amountA);\r\n\r\n    _swap(_tokenA, _tokenB, _amountA.div(2));\r\n    _addLiquidity(_tokenA, _tokenB);\r\n  }\r\n\r\n  /**\r\n   * @dev The OUTPUT_TOKENS are sent to this contract, which allows to add the liquidity right after the swap is completed\r\n   * @dev The tokensA that'll be used to make the swap comes from the original amount that was sent to the zap() function\r\n   * @dev -  Returns the optimal amount of tokensB that'll be used to add what is left of tokensA as liquidity\r\n  */\r\n  function _swap(\r\n    address _from,\r\n    address _to,\r\n    uint _amount\r\n  ) internal {\r\n    IERC20(_from).approve(UNISWAP_ROUTER, _amount);\r\n\r\n    address[] memory path = new address[](2);\r\n    path = new address[](2);\r\n    path[0] = _from;\r\n    path[1] = _to;\r\n\r\n    IUniswapV2Router02(UNISWAP_ROUTER).swapExactTokensForTokens(\r\n      _amount,\r\n      1,\r\n      path,\r\n      address(this),\r\n      block.timestamp\r\n    );\r\n  }\r\n\r\n  /**\r\n   * @dev The tokensA that'll be added as liquidity is what is left after swapping the optimal amount of tokensB\r\n   * @dev The tokensB were obtained from swapping some tokensA\r\n  */\r\n  function _addLiquidity(address _tokenA, address _tokenB) internal {\r\n    uint balA = IERC20(_tokenA).balanceOf(address(this));\r\n    uint balB = IERC20(_tokenB).balanceOf(address(this));\r\n    IERC20(_tokenA).approve(UNISWAP_ROUTER, balA);\r\n    IERC20(_tokenB).approve(UNISWAP_ROUTER, balB);\r\n\r\n    IUniswapV2Router02(UNISWAP_ROUTER).addLiquidity(\r\n      _tokenA,\r\n      _tokenB,\r\n      balA,\r\n      balB,\r\n      0,\r\n      0,\r\n      address(this),\r\n      block.timestamp\r\n    );\r\n  }\r\n\r\n  function getPair(address _tokenA, address _tokenB) external view returns (address) {\r\n    return IUniswapV2Factory(UNISWAP_FACTORY).getPair(_tokenA, _tokenB);\r\n  }\r\n   \r\n\r\n}",
  "sourcePath": "/mnt/c/pr0/blockchain-projects/Uniswap/Liquidity_Value_Calculator/IntegrationContractsWithUniswap/contracts/UniswapOptimal.sol",
  "compiler": {
    "name": "solc",
    "version": "0.6.6+commit.6c089d02.Emscripten.clang"
  },
  "schemaVersion": "3.4.4",
  "updatedAt": "2022-09-18T02:14:11.587Z",
  "networkType": "ethereum",
  "devdoc": {
    "details": "These functions only requires how many tokens from one of the two tokens in a pool will be added as liquidity internally, the functions calculates how many tokens of the other token will be required to perform a swap using all the tokens that the user wants to add as liquidity Once the functions have estimated the required tokens, a swap is performed to get the exact amount of the token B so all the tokens A can be added as liquidity After the swap is perfomed, the token A & token B are sent as liquidity to the pool And, voahala, no tokens are left, all the token A was added as liquidity and the reserve ratio in the pool is remain",
    "methods": {}
  },
  "userdoc": {
    "methods": {}
  }
}