{
  "contractName": "UniswapLiquidity",
  "abi": [
    {
      "anonymous": false,
      "inputs": [
        {
          "indexed": false,
          "internalType": "string",
          "name": "message",
          "type": "string"
        },
        {
          "indexed": false,
          "internalType": "uint256",
          "name": "value",
          "type": "uint256"
        }
      ],
      "name": "Log",
      "type": "event"
    },
    {
      "inputs": [
        {
          "internalType": "address",
          "name": "_tokenA",
          "type": "address"
        },
        {
          "internalType": "address",
          "name": "_tokenB",
          "type": "address"
        },
        {
          "internalType": "uint256",
          "name": "_amountA",
          "type": "uint256"
        },
        {
          "internalType": "uint256",
          "name": "_amountB",
          "type": "uint256"
        }
      ],
      "name": "addLiquidity",
      "outputs": [
        {
          "internalType": "uint256",
          "name": "",
          "type": "uint256"
        }
      ],
      "stateMutability": "nonpayable",
      "type": "function"
    },
    {
      "inputs": [
        {
          "internalType": "address",
          "name": "_tokenA",
          "type": "address"
        },
        {
          "internalType": "address",
          "name": "_tokenB",
          "type": "address"
        }
      ],
      "name": "removeLiquidity",
      "outputs": [],
      "stateMutability": "nonpayable",
      "type": "function"
    },
    {
      "inputs": [
        {
          "internalType": "address",
          "name": "_receiver",
          "type": "address"
        },
        {
          "internalType": "address",
          "name": "_tokenA",
          "type": "address"
        },
        {
          "internalType": "address",
          "name": "_tokenB",
          "type": "address"
        }
      ],
      "name": "transferLiquidityTokensTo",
      "outputs": [],
      "stateMutability": "nonpayable",
      "type": "function"
    }
  ],
  "bytecode": "0x608060405234801561001057600080fd5b50612497806100206000396000f3fe608060405234801561001057600080fd5b50600436106100415760003560e01c806374f9d952146100465780639cf38f7c146100ca578063cf6c62ea1461012e575b600080fd5b6100c86004803603606081101561005c57600080fd5b81019080803573ffffffffffffffffffffffffffffffffffffffff169060200190929190803573ffffffffffffffffffffffffffffffffffffffff169060200190929190803573ffffffffffffffffffffffffffffffffffffffff1690602001909291905050506101ba565b005b61012c600480360360408110156100e057600080fd5b81019080803573ffffffffffffffffffffffffffffffffffffffff169060200190929190803573ffffffffffffffffffffffffffffffffffffffff1690602001909291905050506107d6565b005b6101a46004803603608081101561014457600080fd5b81019080803573ffffffffffffffffffffffffffffffffffffffff169060200190929190803573ffffffffffffffffffffffffffffffffffffffff1690602001909291908035906020019092919080359060200190929190505050611340565b6040518082815260200191505060405180910390f35b60008060003373ffffffffffffffffffffffffffffffffffffffff1673ffffffffffffffffffffffffffffffffffffffff1681526020019081526020016000205411610251576040517f08c379a000000000000000000000000000000000000000000000000000000000815260040180806020018281038252603a815260200180612334603a913960400191505060405180910390fd5b60008060003373ffffffffffffffffffffffffffffffffffffffff1673ffffffffffffffffffffffffffffffffffffffff168152602001908152602001600020549050600073c608f0718bea3563605aa652589767cb35fcd05d73ffffffffffffffffffffffffffffffffffffffff1663e6a4390585856040518363ffffffff1660e01b8152600401808373ffffffffffffffffffffffffffffffffffffffff1673ffffffffffffffffffffffffffffffffffffffff1681526020018273ffffffffffffffffffffffffffffffffffffffff1673ffffffffffffffffffffffffffffffffffffffff1681526020019250505060206040518083038186803b15801561035b57600080fd5b505afa15801561036f573d6000803e3d6000fd5b505050506040513d602081101561038557600080fd5b8101908080519060200190929190505050905060008173ffffffffffffffffffffffffffffffffffffffff166370a08231306040518263ffffffff1660e01b8152600401808273ffffffffffffffffffffffffffffffffffffffff1673ffffffffffffffffffffffffffffffffffffffff16815260200191505060206040518083038186803b15801561041757600080fd5b505afa15801561042b573d6000803e3d6000fd5b505050506040513d602081101561044157600080fd5b8101908080519060200190929190505050905060008060003373ffffffffffffffffffffffffffffffffffffffff1673ffffffffffffffffffffffffffffffffffffffff168152602001908152602001600020819055508173ffffffffffffffffffffffffffffffffffffffff1663a9059cbb87856040518363ffffffff1660e01b8152600401808373ffffffffffffffffffffffffffffffffffffffff1673ffffffffffffffffffffffffffffffffffffffff16815260200182815260200192505050602060405180830381600087803b15801561051f57600080fd5b505af1158015610533573d6000803e3d6000fd5b505050506040513d602081101561054957600080fd5b81019080805190602001909291905050505060008273ffffffffffffffffffffffffffffffffffffffff166370a08231306040518263ffffffff1660e01b8152600401808273ffffffffffffffffffffffffffffffffffffffff1673ffffffffffffffffffffffffffffffffffffffff16815260200191505060206040518083038186803b1580156105da57600080fd5b505afa1580156105ee573d6000803e3d6000fd5b505050506040513d602081101561060457600080fd5b810190808051906020019092919050505090507fdd970dd9b5bfe707922155b058a407655cb18288b807e2216442bca8ad83d6b582604051808060200183815260200182810382526025815260200180612415602591396040019250505060405180910390a17fdd970dd9b5bfe707922155b058a407655cb18288b807e2216442bca8ad83d6b58160405180806020018381526020018281038252602681526020018061230e602691396040019250505060405180910390a160008373ffffffffffffffffffffffffffffffffffffffff166370a08231896040518263ffffffff1660e01b8152600401808273ffffffffffffffffffffffffffffffffffffffff1673ffffffffffffffffffffffffffffffffffffffff16815260200191505060206040518083038186803b15801561073c57600080fd5b505afa158015610750573d6000803e3d6000fd5b505050506040513d602081101561076657600080fd5b810190808051906020019092919050505090507fdd970dd9b5bfe707922155b058a407655cb18288b807e2216442bca8ad83d6b58160405180806020018381526020018281038252602681526020018061230e602691396040019250505060405180910390a15050505050505050565b60008060003373ffffffffffffffffffffffffffffffffffffffff1673ffffffffffffffffffffffffffffffffffffffff16815260200190815260200160002054905060008111610872576040517f08c379a00000000000000000000000000000000000000000000000000000000081526004018080602001828103825260338152602001806122b76033913960400191505060405180910390fd5b600073c608f0718bea3563605aa652589767cb35fcd05d73ffffffffffffffffffffffffffffffffffffffff1663e6a4390585856040518363ffffffff1660e01b8152600401808373ffffffffffffffffffffffffffffffffffffffff1673ffffffffffffffffffffffffffffffffffffffff1681526020018273ffffffffffffffffffffffffffffffffffffffff1673ffffffffffffffffffffffffffffffffffffffff1681526020019250505060206040518083038186803b15801561093957600080fd5b505afa15801561094d573d6000803e3d6000fd5b505050506040513d602081101561096357600080fd5b8101908080519060200190929190505050905060008173ffffffffffffffffffffffffffffffffffffffff166370a08231306040518263ffffffff1660e01b8152600401808273ffffffffffffffffffffffffffffffffffffffff1673ffffffffffffffffffffffffffffffffffffffff16815260200191505060206040518083038186803b1580156109f557600080fd5b505afa158015610a09573d6000803e3d6000fd5b505050506040513d6020811015610a1f57600080fd5b810190808051906020019092919050505090508173ffffffffffffffffffffffffffffffffffffffff1663095ea7b37319326b7f6d45e40fdb04c2cd7c47147c6fa18d92856040518363ffffffff1660e01b8152600401808373ffffffffffffffffffffffffffffffffffffffff1673ffffffffffffffffffffffffffffffffffffffff16815260200182815260200192505050602060405180830381600087803b158015610acd57600080fd5b505af1158015610ae1573d6000803e3d6000fd5b505050506040513d6020811015610af757600080fd5b81019080805190602001909291905050505060008060003373ffffffffffffffffffffffffffffffffffffffff1673ffffffffffffffffffffffffffffffffffffffff168152602001908152602001600020819055506000807319326b7f6d45e40fdb04c2cd7c47147c6fa18d9273ffffffffffffffffffffffffffffffffffffffff1663baa2abde88888860018033426040518863ffffffff1660e01b8152600401808873ffffffffffffffffffffffffffffffffffffffff1673ffffffffffffffffffffffffffffffffffffffff1681526020018773ffffffffffffffffffffffffffffffffffffffff1673ffffffffffffffffffffffffffffffffffffffff1681526020018681526020018581526020018481526020018373ffffffffffffffffffffffffffffffffffffffff1673ffffffffffffffffffffffffffffffffffffffff1681526020018281526020019750505050505050506040805180830381600087803b158015610c6b57600080fd5b505af1158015610c7f573d6000803e3d6000fd5b505050506040513d6040811015610c9557600080fd5b8101908080519060200190929190805190602001909291905050509150915060008473ffffffffffffffffffffffffffffffffffffffff166370a08231306040518263ffffffff1660e01b8152600401808273ffffffffffffffffffffffffffffffffffffffff1673ffffffffffffffffffffffffffffffffffffffff16815260200191505060206040518083038186803b158015610d3357600080fd5b505afa158015610d47573d6000803e3d6000fd5b505050506040513d6020811015610d5d57600080fd5b810190808051906020019092919050505090507fdd970dd9b5bfe707922155b058a407655cb18288b807e2216442bca8ad83d6b58360405180806020018381526020018281038252601c8152602001807f546f6b656e20412052657475726e6564206120746f74616c206f663a000000008152506020019250505060405180910390a17fdd970dd9b5bfe707922155b058a407655cb18288b807e2216442bca8ad83d6b58260405180806020018381526020018281038252601c8152602001807f546f6b656e20422052657475726e6564206120746f74616c206f663a000000008152506020019250505060405180910390a17fdd970dd9b5bfe707922155b058a407655cb18288b807e2216442bca8ad83d6b584604051808060200183815260200182810382526025815260200180612415602591396040019250505060405180910390a17fdd970dd9b5bfe707922155b058a407655cb18288b807e2216442bca8ad83d6b58160405180806020018381526020018281038252602681526020018061230e602691396040019250505060405180910390a160008873ffffffffffffffffffffffffffffffffffffffff166370a08231306040518263ffffffff1660e01b8152600401808273ffffffffffffffffffffffffffffffffffffffff1673ffffffffffffffffffffffffffffffffffffffff16815260200191505060206040518083038186803b158015610f7557600080fd5b505afa158015610f89573d6000803e3d6000fd5b505050506040513d6020811015610f9f57600080fd5b810190808051906020019092919050505090507fdd970dd9b5bfe707922155b058a407655cb18288b807e2216442bca8ad83d6b5816040518080602001838152602001828103825260248152602001806122ea602491396040019250505060405180910390a160008973ffffffffffffffffffffffffffffffffffffffff166370a08231886040518263ffffffff1660e01b8152600401808273ffffffffffffffffffffffffffffffffffffffff1673ffffffffffffffffffffffffffffffffffffffff16815260200191505060206040518083038186803b15801561108457600080fd5b505afa158015611098573d6000803e3d6000fd5b505050506040513d60208110156110ae57600080fd5b810190808051906020019092919050505090507fdd970dd9b5bfe707922155b058a407655cb18288b807e2216442bca8ad83d6b5816040518080602001838152602001828103825260288152602001806123c9602891396040019250505060405180910390a160008973ffffffffffffffffffffffffffffffffffffffff166370a08231306040518263ffffffff1660e01b8152600401808273ffffffffffffffffffffffffffffffffffffffff1673ffffffffffffffffffffffffffffffffffffffff16815260200191505060206040518083038186803b15801561119357600080fd5b505afa1580156111a7573d6000803e3d6000fd5b505050506040513d60208110156111bd57600080fd5b810190808051906020019092919050505090507fdd970dd9b5bfe707922155b058a407655cb18288b807e2216442bca8ad83d6b58160405180806020018381526020018281038252602481526020018061236e602491396040019250505060405180910390a160008a73ffffffffffffffffffffffffffffffffffffffff166370a082318a6040518263ffffffff1660e01b8152600401808273ffffffffffffffffffffffffffffffffffffffff1673ffffffffffffffffffffffffffffffffffffffff16815260200191505060206040518083038186803b1580156112a257600080fd5b505afa1580156112b6573d6000803e3d6000fd5b505050506040513d60208110156112cc57600080fd5b810190808051906020019092919050505090507fdd970dd9b5bfe707922155b058a407655cb18288b807e2216442bca8ad83d6b58160405180806020018381526020018281038252602881526020018061243a602891396040019250505060405180910390a1505050505050505050505050565b60008473ffffffffffffffffffffffffffffffffffffffff166323b872dd3330866040518463ffffffff1660e01b8152600401808473ffffffffffffffffffffffffffffffffffffffff1673ffffffffffffffffffffffffffffffffffffffff1681526020018373ffffffffffffffffffffffffffffffffffffffff1673ffffffffffffffffffffffffffffffffffffffff1681526020018281526020019350505050602060405180830381600087803b1580156113fd57600080fd5b505af1158015611411573d6000803e3d6000fd5b505050506040513d602081101561142757600080fd5b8101908080519060200190929190505050508373ffffffffffffffffffffffffffffffffffffffff166323b872dd3330856040518463ffffffff1660e01b8152600401808473ffffffffffffffffffffffffffffffffffffffff1673ffffffffffffffffffffffffffffffffffffffff1681526020018373ffffffffffffffffffffffffffffffffffffffff1673ffffffffffffffffffffffffffffffffffffffff1681526020018281526020019350505050602060405180830381600087803b1580156114f457600080fd5b505af1158015611508573d6000803e3d6000fd5b505050506040513d602081101561151e57600080fd5b8101908080519060200190929190505050508473ffffffffffffffffffffffffffffffffffffffff1663095ea7b37319326b7f6d45e40fdb04c2cd7c47147c6fa18d92856040518363ffffffff1660e01b8152600401808373ffffffffffffffffffffffffffffffffffffffff1673ffffffffffffffffffffffffffffffffffffffff16815260200182815260200192505050602060405180830381600087803b1580156115cb57600080fd5b505af11580156115df573d6000803e3d6000fd5b505050506040513d60208110156115f557600080fd5b8101908080519060200190929190505050508373ffffffffffffffffffffffffffffffffffffffff1663095ea7b37319326b7f6d45e40fdb04c2cd7c47147c6fa18d92846040518363ffffffff1660e01b8152600401808373ffffffffffffffffffffffffffffffffffffffff1673ffffffffffffffffffffffffffffffffffffffff16815260200182815260200192505050602060405180830381600087803b1580156116a257600080fd5b505af11580156116b6573d6000803e3d6000fd5b505050506040513d60208110156116cc57600080fd5b81019080805190602001909291905050505060008060007319326b7f6d45e40fdb04c2cd7c47147c6fa18d9273ffffffffffffffffffffffffffffffffffffffff1663e8e337008989898960018030426040518963ffffffff1660e01b8152600401808973ffffffffffffffffffffffffffffffffffffffff1673ffffffffffffffffffffffffffffffffffffffff1681526020018873ffffffffffffffffffffffffffffffffffffffff1673ffffffffffffffffffffffffffffffffffffffff1681526020018781526020018681526020018581526020018481526020018373ffffffffffffffffffffffffffffffffffffffff1673ffffffffffffffffffffffffffffffffffffffff16815260200182815260200198505050505050505050606060405180830381600087803b15801561180757600080fd5b505af115801561181b573d6000803e3d6000fd5b505050506040513d606081101561183157600080fd5b8101908080519060200190929190805190602001909291908051906020019092919050505092509250925060008387039050600083870390508973ffffffffffffffffffffffffffffffffffffffff1663a9059cbb33846040518363ffffffff1660e01b8152600401808373ffffffffffffffffffffffffffffffffffffffff1673ffffffffffffffffffffffffffffffffffffffff16815260200182815260200192505050602060405180830381600087803b1580156118f157600080fd5b505af1158015611905573d6000803e3d6000fd5b505050506040513d602081101561191b57600080fd5b8101908080519060200190929190505050508873ffffffffffffffffffffffffffffffffffffffff1663a9059cbb33836040518363ffffffff1660e01b8152600401808373ffffffffffffffffffffffffffffffffffffffff1673ffffffffffffffffffffffffffffffffffffffff16815260200182815260200192505050602060405180830381600087803b1580156119b457600080fd5b505af11580156119c8573d6000803e3d6000fd5b505050506040513d60208110156119de57600080fd5b810190808051906020019092919050505050826000803373ffffffffffffffffffffffffffffffffffffffff1673ffffffffffffffffffffffffffffffffffffffff16815260200190815260200160002054016000803373ffffffffffffffffffffffffffffffffffffffff1673ffffffffffffffffffffffffffffffffffffffff16815260200190815260200160002081905550600073c608f0718bea3563605aa652589767cb35fcd05d73ffffffffffffffffffffffffffffffffffffffff1663e6a439058c8c6040518363ffffffff1660e01b8152600401808373ffffffffffffffffffffffffffffffffffffffff1673ffffffffffffffffffffffffffffffffffffffff1681526020018273ffffffffffffffffffffffffffffffffffffffff1673ffffffffffffffffffffffffffffffffffffffff1681526020019250505060206040518083038186803b158015611b3a57600080fd5b505afa158015611b4e573d6000803e3d6000fd5b505050506040513d6020811015611b6457600080fd5b8101908080519060200190929190505050905060008173ffffffffffffffffffffffffffffffffffffffff166370a08231306040518263ffffffff1660e01b8152600401808273ffffffffffffffffffffffffffffffffffffffff1673ffffffffffffffffffffffffffffffffffffffff16815260200191505060206040518083038186803b158015611bf657600080fd5b505afa158015611c0a573d6000803e3d6000fd5b505050506040513d6020811015611c2057600080fd5b810190808051906020019092919050505090507fdd970dd9b5bfe707922155b058a407655cb18288b807e2216442bca8ad83d6b58760405180806020018381526020018281038252601b8152602001807f616d6f756e744120616464656420746f2074686520706f6f6c3a2000000000008152506020019250505060405180910390a17fdd970dd9b5bfe707922155b058a407655cb18288b807e2216442bca8ad83d6b58660405180806020018381526020018281038252601b8152602001807f616d6f756e744220616464656420746f2074686520706f6f6c3a2000000000008152506020019250505060405180910390a17fdd970dd9b5bfe707922155b058a407655cb18288b807e2216442bca8ad83d6b58560405180806020018381526020018281038252601d8152602001807f4c697175696469747920616464656420746f2074686520706f6f6c3a200000008152506020019250505060405180910390a17fdd970dd9b5bfe707922155b058a407655cb18288b807e2216442bca8ad83d6b56000803373ffffffffffffffffffffffffffffffffffffffff1673ffffffffffffffffffffffffffffffffffffffff168152602001908152602001600020546040518080602001838152602001828103825260248152602001806123f1602491396040019250505060405180910390a17fdd970dd9b5bfe707922155b058a407655cb18288b807e2216442bca8ad83d6b581604051808060200183815260200182810382526037815260200180612392603791396040019250505060405180910390a160008c73ffffffffffffffffffffffffffffffffffffffff166370a08231306040518263ffffffff1660e01b8152600401808273ffffffffffffffffffffffffffffffffffffffff1673ffffffffffffffffffffffffffffffffffffffff16815260200191505060206040518083038186803b158015611ee657600080fd5b505afa158015611efa573d6000803e3d6000fd5b505050506040513d6020811015611f1057600080fd5b810190808051906020019092919050505090507fdd970dd9b5bfe707922155b058a407655cb18288b807e2216442bca8ad83d6b5816040518080602001838152602001828103825260248152602001806122ea602491396040019250505060405180910390a160008d73ffffffffffffffffffffffffffffffffffffffff166370a08231856040518263ffffffff1660e01b8152600401808273ffffffffffffffffffffffffffffffffffffffff1673ffffffffffffffffffffffffffffffffffffffff16815260200191505060206040518083038186803b158015611ff557600080fd5b505afa158015612009573d6000803e3d6000fd5b505050506040513d602081101561201f57600080fd5b810190808051906020019092919050505090507fdd970dd9b5bfe707922155b058a407655cb18288b807e2216442bca8ad83d6b5816040518080602001838152602001828103825260288152602001806123c9602891396040019250505060405180910390a160008d73ffffffffffffffffffffffffffffffffffffffff166370a08231306040518263ffffffff1660e01b8152600401808273ffffffffffffffffffffffffffffffffffffffff1673ffffffffffffffffffffffffffffffffffffffff16815260200191505060206040518083038186803b15801561210457600080fd5b505afa158015612118573d6000803e3d6000fd5b505050506040513d602081101561212e57600080fd5b810190808051906020019092919050505090507fdd970dd9b5bfe707922155b058a407655cb18288b807e2216442bca8ad83d6b58160405180806020018381526020018281038252602481526020018061236e602491396040019250505060405180910390a160008e73ffffffffffffffffffffffffffffffffffffffff166370a08231876040518263ffffffff1660e01b8152600401808273ffffffffffffffffffffffffffffffffffffffff1673ffffffffffffffffffffffffffffffffffffffff16815260200191505060206040518083038186803b15801561221357600080fd5b505afa158015612227573d6000803e3d6000fd5b505050506040513d602081101561223d57600080fd5b810190808051906020019092919050505090507fdd970dd9b5bfe707922155b058a407655cb18288b807e2216442bca8ad83d6b58160405180806020018381526020018281038252602881526020018061243a602891396040019250505060405180910390a1505050505050505050505094935050505056fe4572726f722c207468697320616464726573732068617665206e6f742070726f766964656420616e79206c6971756964697479546f74616c20746f6b656e412068656c6420696e207468697320636f6e74726163743a2052656d61696e696e67204c697175696469747920696e207468697320636f6e74726163743a205468652063616c6c657220646f65736e277420686f6c6473206c697175696469747920746f6b656e7320696e207468697320636f6e7472616374546f74616c20746f6b656e422068656c6420696e207468697320636f6e74726163743a20546f74616c206c69717569646974792070726f766964657220746f6b656e732068656c6420696e207468697320636f6e74726163743a20546f74616c20746f6b656e412068656c6420696e2074686520706f6f6c20636f6e74726163743a20546f74616c206c69717569646974792068656c64206279207468652070726f76696465724f726967696e616c204c697175696469747920696e207468697320636f6e74726163743a20546f74616c20746f6b656e422068656c6420696e2074686520706f6f6c20636f6e74726163743a20a26469706673582212207b3de31119ce4142dfd5e446ab07145786cd397b67b8cbb76d356ef212f4313a64736f6c63430006060033",
  "immutableReferences": {},
  "source": "pragma solidity ^0.6.6;\r\n\r\nimport \"./interfaces/IERC20.sol\";\r\nimport \"@uniswap/v2-periphery/contracts/interfaces/IUniswapV2Router02.sol\";\r\nimport \"@uniswap/v2-core/contracts/interfaces/IUniswapV2Factory.sol\";\r\n\r\n\r\ncontract UniswapLiquidity {\r\n  address private constant UNISWAP_FACTORY = 0xC608F0718beA3563605aa652589767Cb35fcD05D;  //Ganache\r\n  address private constant UNISWAP_ROUTER = 0x19326b7F6d45e40fDb04C2Cd7c47147c6FA18D92;   //Ganache\r\n  address private constant WETH = 0xf25812889146372f9614c499228620EB7017A569;             //Ganache\r\n\r\n  mapping(address => uint) liquidityOwnership;\r\n\r\n  event Log(string message, uint value);\r\n\r\n  function addLiquidity(address _tokenA, address _tokenB, uint _amountA, uint _amountB) external returns(uint) {\r\n    IERC20(_tokenA).transferFrom(msg.sender, address(this), _amountA);\r\n    IERC20(_tokenB).transferFrom(msg.sender, address(this), _amountB);\r\n\r\n    IERC20(_tokenA).approve(UNISWAP_ROUTER, _amountA);\r\n    IERC20(_tokenB).approve(UNISWAP_ROUTER, _amountB);\r\n\r\n    (uint amountA, uint amountB, uint liquidity) = \r\n    IUniswapV2Router02(UNISWAP_ROUTER).addLiquidity(\r\n      _tokenA,\r\n      _tokenB,\r\n      _amountA,\r\n      _amountB,\r\n      1,\r\n      1,\r\n      address(this),\r\n      block.timestamp\r\n    );\r\n\r\n    // Return the remaining tokens to the provider - All the tokens that were not added to the pool\r\n    uint remainingTokenA = _amountA - amountA;\r\n    uint remainingTokenB = _amountB - amountB;\r\n\r\n    IERC20(_tokenA).transfer(msg.sender, remainingTokenA);\r\n    IERC20(_tokenB).transfer(msg.sender, remainingTokenB);\r\n    \r\n    // Update the total provider's liquidity - total liquidity that a provider helds on this contract\r\n    liquidityOwnership[msg.sender] = liquidityOwnership[msg.sender] + liquidity;\r\n\r\n    // Retrieve the total liquidity provider tokens that this contract helds\r\n    address pair = IUniswapV2Factory(UNISWAP_FACTORY).getPair(_tokenA, _tokenB);\r\n    uint contractOriginalLiquidity = IERC20(pair).balanceOf(address(this));\r\n\r\n    emit Log(\"amountA added to the pool: \",amountA);\r\n    emit Log(\"amountB added to the pool: \",amountB);\r\n    emit Log(\"Liquidity added to the pool: \",liquidity);\r\n    emit Log(\"Total liquidity held by the provider\", liquidityOwnership[msg.sender]);\r\n    emit Log(\"Total liquidity provider tokens held in this contract: \", contractOriginalLiquidity);\r\n\r\n    uint totalTokenA = IERC20(_tokenA).balanceOf(address(this));\r\n    emit Log(\"Total tokenA held in this contract: \", totalTokenA);\r\n    uint totalTokenAInPool = IERC20(_tokenA).balanceOf(pair);\r\n    emit Log(\"Total tokenA held in the pool contract: \", totalTokenAInPool);\r\n\r\n    uint totalTokenB = IERC20(_tokenB).balanceOf(address(this));\r\n    emit Log(\"Total tokenB held in this contract: \", totalTokenB);\r\n    uint totalTokenBInPool = IERC20(_tokenB).balanceOf(pair);\r\n    emit Log(\"Total tokenB held in the pool contract: \", totalTokenBInPool);\r\n  }\r\n\r\n  function removeLiquidity(address _tokenA, address _tokenB) external {\r\n    uint liquidity = liquidityOwnership[msg.sender]; // Provider's total liquidity\r\n    require(liquidity > 0, \"Error, this address have not provided any liquidity\");\r\n\r\n    address pair = IUniswapV2Factory(UNISWAP_FACTORY).getPair(_tokenA, _tokenB);\r\n    uint contractOriginalLiquidity = IERC20(pair).balanceOf(address(this));\r\n\r\n    IERC20(pair).approve(UNISWAP_ROUTER, liquidity);\r\n    \r\n    // Set provider's liquidity to 0 - prevent reentrancy\r\n    liquidityOwnership[msg.sender] = 0;\r\n    // Remove provider's liquidity from this contract and send tokens A & B to te provider's address\r\n    (uint amountA, uint amountB) = IUniswapV2Router02(UNISWAP_ROUTER).removeLiquidity(_tokenA,_tokenB,liquidity,1,1,msg.sender,block.timestamp);\r\n\r\n    uint contractRemainingLiquidity = IERC20(pair).balanceOf(address(this));\r\n    emit Log(\"Token A Returned a total of:\" , amountA);\r\n    emit Log(\"Token B Returned a total of:\" , amountB);\r\n    emit Log(\"Original Liquidity in this contract: \", contractOriginalLiquidity);\r\n    emit Log(\"Remaining Liquidity in this contract: \", contractRemainingLiquidity);\r\n\r\n    uint totalTokenA = IERC20(_tokenA).balanceOf(address(this));\r\n    emit Log(\"Total tokenA held in this contract: \", totalTokenA);\r\n    uint totalTokenAInPool = IERC20(_tokenA).balanceOf(pair);\r\n    emit Log(\"Total tokenA held in the pool contract: \", totalTokenAInPool);\r\n\r\n    uint totalTokenB = IERC20(_tokenB).balanceOf(address(this));\r\n    emit Log(\"Total tokenB held in this contract: \", totalTokenB);\r\n    uint totalTokenBInPool = IERC20(_tokenB).balanceOf(pair);\r\n    emit Log(\"Total tokenB held in the pool contract: \", totalTokenBInPool);\r\n\r\n  }\r\n\r\n  /**\r\n    @dev transferLiquidityTokensTo() function transfers all the liquidity tokens that a providers holds on this contract to a given address specified in the parameters\r\n  */\r\n  function transferLiquidityTokensTo(address _receiver, address _tokenA, address _tokenB) external {\r\n    require(liquidityOwnership[msg.sender] > 0, \"The caller doesn't holds liquidity tokens in this contract\");\r\n  \r\n    uint liquidity = liquidityOwnership[msg.sender]; // Provider's total liquidity\r\n    address pair = IUniswapV2Factory(UNISWAP_FACTORY).getPair(_tokenA, _tokenB);\r\n\r\n    uint contractOriginalLiquidity = IERC20(pair).balanceOf(address(this));\r\n\r\n    // Prevent re-entrancy attacks\r\n    liquidityOwnership[msg.sender] = 0;\r\n\r\n    // Send the liquidity tokens that the providers holds on this contract\r\n    IERC20(pair).transfer(_receiver, liquidity);\r\n\r\n    uint contractRemainingLiquidity = IERC20(pair).balanceOf(address(this));\r\n\r\n    emit Log(\"Original Liquidity in this contract: \", contractOriginalLiquidity);\r\n    emit Log(\"Remaining Liquidity in this contract: \", contractRemainingLiquidity);\r\n\r\n    uint newAddressLPs = IERC20(pair).balanceOf(_receiver);\r\n    emit Log(\"Remaining Liquidity in this contract: \", newAddressLPs);\r\n\r\n  }\r\n  \r\n}",
  "sourcePath": "/mnt/c/pr0/blockchain-projects/Uniswap/Liquidity_Value_Calculator/IntegrationContractsWithUniswap/contracts/UniswapLiquidity.sol",
  "compiler": {
    "name": "solc",
    "version": "0.6.6+commit.6c089d02.Emscripten.clang"
  },
  "schemaVersion": "3.4.4",
  "updatedAt": "2022-09-18T02:14:10.875Z",
  "networkType": "ethereum",
  "devdoc": {
    "methods": {
      "transferLiquidityTokensTo(address,address,address)": {
        "details": "transferLiquidityTokensTo() function transfers all the liquidity tokens that a providers holds on this contract to a given address specified in the parameters"
      }
    }
  },
  "userdoc": {
    "methods": {}
  }
}