{
  "contractName": "SwapTokens",
  "abi": [
    {
      "inputs": [],
      "stateMutability": "nonpayable",
      "type": "constructor"
    },
    {
      "anonymous": false,
      "inputs": [
        {
          "indexed": false,
          "internalType": "address",
          "name": "tokenIn",
          "type": "address"
        },
        {
          "indexed": false,
          "internalType": "address",
          "name": "tokenOut",
          "type": "address"
        },
        {
          "indexed": false,
          "internalType": "uint256",
          "name": "amountIn",
          "type": "uint256"
        },
        {
          "indexed": false,
          "internalType": "uint256",
          "name": "amountOut",
          "type": "uint256"
        },
        {
          "indexed": false,
          "internalType": "address",
          "name": "to",
          "type": "address"
        },
        {
          "indexed": false,
          "internalType": "uint256",
          "name": "timestamp",
          "type": "uint256"
        }
      ],
      "name": "Swap",
      "type": "event"
    },
    {
      "inputs": [
        {
          "internalType": "address",
          "name": "_newAddress",
          "type": "address"
        }
      ],
      "name": "updateUniswapV2RouterAddress",
      "outputs": [],
      "stateMutability": "nonpayable",
      "type": "function"
    },
    {
      "inputs": [
        {
          "internalType": "address",
          "name": "_newAddress",
          "type": "address"
        }
      ],
      "name": "updateWETHAddress",
      "outputs": [],
      "stateMutability": "nonpayable",
      "type": "function"
    },
    {
      "inputs": [
        {
          "internalType": "address",
          "name": "_tokenIn",
          "type": "address"
        },
        {
          "internalType": "address",
          "name": "_tokenOut",
          "type": "address"
        },
        {
          "internalType": "uint256",
          "name": "_amountIn",
          "type": "uint256"
        },
        {
          "internalType": "uint256",
          "name": "_amountOutMin",
          "type": "uint256"
        },
        {
          "internalType": "address",
          "name": "_to",
          "type": "address"
        }
      ],
      "name": "swap",
      "outputs": [],
      "stateMutability": "nonpayable",
      "type": "function"
    }
  ],
  "bytecode": "0x608060405234801561001057600080fd5b507319326b7f6d45e40fdb04c2cd7c47147c6fa18d926000806101000a81548173ffffffffffffffffffffffffffffffffffffffff021916908373ffffffffffffffffffffffffffffffffffffffff16021790555073f25812889146372f9614c499228620eb7017a569600160006101000a81548173ffffffffffffffffffffffffffffffffffffffff021916908373ffffffffffffffffffffffffffffffffffffffff16021790555033600260006101000a81548173ffffffffffffffffffffffffffffffffffffffff021916908373ffffffffffffffffffffffffffffffffffffffff1602179055506109768061010a6000396000f3fe608060405234801561001057600080fd5b50600436106100405760003560e01c8062684fd1146100455780638918719814610089578063d5bcb9b5146100cd575b600080fd5b6100876004803603602081101561005b57600080fd5b81019080803573ffffffffffffffffffffffffffffffffffffffff169060200190929190505050610165565b005b6100cb6004803603602081101561009f57600080fd5b81019080803573ffffffffffffffffffffffffffffffffffffffff16906020019092919050505061024f565b005b610163600480360360a08110156100e357600080fd5b81019080803573ffffffffffffffffffffffffffffffffffffffff169060200190929190803573ffffffffffffffffffffffffffffffffffffffff1690602001909291908035906020019092919080359060200190929190803573ffffffffffffffffffffffffffffffffffffffff169060200190929190505050610338565b005b600260009054906101000a900473ffffffffffffffffffffffffffffffffffffffff1673ffffffffffffffffffffffffffffffffffffffff163373ffffffffffffffffffffffffffffffffffffffff161461020b576040517f08c379a000000000000000000000000000000000000000000000000000000000815260040180806020018281038252602581526020018061091c6025913960400191505060405180910390fd5b80600160006101000a81548173ffffffffffffffffffffffffffffffffffffffff021916908373ffffffffffffffffffffffffffffffffffffffff16021790555050565b600260009054906101000a900473ffffffffffffffffffffffffffffffffffffffff1673ffffffffffffffffffffffffffffffffffffffff163373ffffffffffffffffffffffffffffffffffffffff16146102f5576040517f08c379a000000000000000000000000000000000000000000000000000000000815260040180806020018281038252602581526020018061091c6025913960400191505060405180910390fd5b806000806101000a81548173ffffffffffffffffffffffffffffffffffffffff021916908373ffffffffffffffffffffffffffffffffffffffff16021790555050565b8473ffffffffffffffffffffffffffffffffffffffff166323b872dd3330866040518463ffffffff1660e01b8152600401808473ffffffffffffffffffffffffffffffffffffffff1673ffffffffffffffffffffffffffffffffffffffff1681526020018373ffffffffffffffffffffffffffffffffffffffff1673ffffffffffffffffffffffffffffffffffffffff1681526020018281526020019350505050602060405180830381600087803b1580156103f357600080fd5b505af1158015610407573d6000803e3d6000fd5b505050506040513d602081101561041d57600080fd5b8101908080519060200190929190505050508473ffffffffffffffffffffffffffffffffffffffff1663095ea7b36000809054906101000a900473ffffffffffffffffffffffffffffffffffffffff16856040518363ffffffff1660e01b8152600401808373ffffffffffffffffffffffffffffffffffffffff1673ffffffffffffffffffffffffffffffffffffffff16815260200182815260200192505050602060405180830381600087803b1580156104d757600080fd5b505af11580156104eb573d6000803e3d6000fd5b505050506040513d602081101561050157600080fd5b8101908080519060200190929190505050506060600367ffffffffffffffff8111801561052d57600080fd5b5060405190808252806020026020018201604052801561055c5781602001602082028036833780820191505090505b509050858160008151811061056d57fe5b602002602001019073ffffffffffffffffffffffffffffffffffffffff16908173ffffffffffffffffffffffffffffffffffffffff1681525050600160009054906101000a900473ffffffffffffffffffffffffffffffffffffffff16816001815181106105d757fe5b602002602001019073ffffffffffffffffffffffffffffffffffffffff16908173ffffffffffffffffffffffffffffffffffffffff1681525050848160028151811061061f57fe5b602002602001019073ffffffffffffffffffffffffffffffffffffffff16908173ffffffffffffffffffffffffffffffffffffffff16815250506000809054906101000a900473ffffffffffffffffffffffffffffffffffffffff1673ffffffffffffffffffffffffffffffffffffffff166338ed173985858486426040518663ffffffff1660e01b815260040180868152602001858152602001806020018473ffffffffffffffffffffffffffffffffffffffff1673ffffffffffffffffffffffffffffffffffffffff168152602001838152602001828103825285818151815260200191508051906020019060200280838360005b83811015610731578082015181840152602081019050610716565b505050509050019650505050505050600060405180830381600087803b15801561075a57600080fd5b505af115801561076e573d6000803e3d6000fd5b505050506040513d6000823e3d601f19601f82011682018060405250602081101561079857600080fd5b81019080805160405193929190846401000000008211156107b857600080fd5b838201915060208201858111156107ce57600080fd5b82518660208202830111640100000000821117156107eb57600080fd5b8083526020830192505050908051906020019060200280838360005b83811015610822578082015181840152602081019050610807565b50505050905001604052505050507f90cc256f5af4416325df97c99f4628609e5f90fbae7338ae3c3b29a075e162e8868686868642604051808773ffffffffffffffffffffffffffffffffffffffff1673ffffffffffffffffffffffffffffffffffffffff1681526020018673ffffffffffffffffffffffffffffffffffffffff1673ffffffffffffffffffffffffffffffffffffffff1681526020018581526020018481526020018373ffffffffffffffffffffffffffffffffffffffff1673ffffffffffffffffffffffffffffffffffffffff168152602001828152602001965050505050505060405180910390a150505050505056fe4f6e6c7920746865206f776e65722063616e2063616c6c20746869732066756e6374696f6ea26469706673582212209c69fa8e98d79dd9834cf715a58f24a7bb978ec72138f841fcfd7273977f227b64736f6c63430006060033",
  "immutableReferences": {},
  "source": "pragma solidity ^0.6.6;\r\nimport '@uniswap/v2-periphery/contracts/interfaces/IUniswapV2Router02.sol';\r\nimport \"./interfaces/IERC20.sol\";\r\n\r\ncontract SwapTokens {\r\n  address private UNISWAP_V2_ROUTER;\r\n  address private WETH;\r\n  address private owner;\r\n\r\n  event Swap(address tokenIn, address tokenOut, uint amountIn, uint amountOut, address to, uint timestamp);\r\n\r\n  constructor() public {\r\n    UNISWAP_V2_ROUTER = 0x19326b7F6d45e40fDb04C2Cd7c47147c6FA18D92; // Address in Ganache\r\n    WETH = 0xf25812889146372f9614c499228620EB7017A569;              // Address in Ganache\r\n    owner = msg.sender; \r\n  }\r\n\r\n  modifier onlyOwner() {\r\n    require(msg.sender == owner, \"Only the owner can call this function\");\r\n    _;\r\n  }\r\n\r\n  function updateUniswapV2RouterAddress(address _newAddress) public onlyOwner() {\r\n    UNISWAP_V2_ROUTER = _newAddress;\r\n  }\r\n\r\n  function updateWETHAddress(address _newAddress) public onlyOwner() {\r\n    WETH = _newAddress;\r\n  }\r\n\r\n  /**\r\n   * @dev Swaps two tokens specifying the minimum number of tokens to receive in exchange for the tokens you give\r\n   * @param _tokenIn - The address of the token the trader is sending\r\n   * @param _tokenOut - The address of the token the trader wants to receive\r\n   * @param _amountIn - The amount of tokens given by the trader\r\n   * @param _amountOutMin - The amount of desired tokens to receive out of the trade\r\n   * @param _to - The address that will receive the output tokens\r\n   * Returns the total of output tokens to the specified address in the _to parameter\r\n   */\r\n   function swap(\r\n    address _tokenIn,\r\n    address _tokenOut,\r\n    uint _amountIn,\r\n    uint _amountOutMin,\r\n    address _to\r\n   ) external {\r\n    IERC20(_tokenIn).transferFrom(msg.sender, address(this), _amountIn);\r\n    IERC20(_tokenIn).approve(UNISWAP_V2_ROUTER, _amountIn);\r\n    \r\n    // Trades the _tokenIn for WETH and then WETH for the _tokenOut\r\n    address[] memory path;\r\n    path = new address[](3);\r\n    path[0] = _tokenIn;\r\n    path[1] = WETH;\r\n    path[2] = _tokenOut;\r\n\r\n    IUniswapV2Router02(UNISWAP_V2_ROUTER).swapExactTokensForTokens(_amountIn, _amountOutMin, path, _to, block.timestamp);\r\n    emit Swap(_tokenIn, _tokenOut, _amountIn, _amountOutMin, _to, block.timestamp);\r\n   }\r\n\r\n\r\n\r\n}",
  "sourcePath": "/mnt/c/pr0/blockchain-projects/Uniswap/Liquidity_Value_Calculator/IntegrationContractsWithUniswap/contracts/SwapTokens.sol",
  "compiler": {
    "name": "solc",
    "version": "0.6.6+commit.6c089d02.Emscripten.clang"
  },
  "schemaVersion": "3.4.4",
  "updatedAt": "2022-09-17T01:17:29.071Z",
  "devdoc": {
    "methods": {
      "swap(address,address,uint256,uint256,address)": {
        "details": "Swaps two tokens specifying the minimum number of tokens to receive in exchange for the tokens you give",
        "params": {
          "_amountIn": "- The amount of tokens given by the trader",
          "_amountOutMin": "- The amount of desired tokens to receive out of the trade",
          "_to": "- The address that will receive the output tokens Returns the total of output tokens to the specified address in the _to parameter",
          "_tokenIn": "- The address of the token the trader is sending",
          "_tokenOut": "- The address of the token the trader wants to receive"
        }
      }
    }
  },
  "userdoc": {
    "methods": {}
  }
}